{
  "_format": "hh-sol-artifact-1",
  "contractName": "Facilitator",
  "sourceName": "contracts/Facilitator.sol",
  "abi": [
    {
      "inputs": [
        {
          "internalType": "uint64",
          "name": "_destinationChainSelector",
          "type": "uint64"
        },
        {
          "internalType": "address",
          "name": "_router",
          "type": "address"
        },
        {
          "internalType": "address",
          "name": "_link",
          "type": "address"
        },
        {
          "internalType": "address",
          "name": "_gho",
          "type": "address"
        }
      ],
      "stateMutability": "nonpayable",
      "type": "constructor"
    },
    {
      "inputs": [
        {
          "internalType": "address",
          "name": "owner",
          "type": "address"
        },
        {
          "internalType": "address",
          "name": "target",
          "type": "address"
        },
        {
          "internalType": "uint256",
          "name": "value",
          "type": "uint256"
        }
      ],
      "name": "FailedToWithdrawEth",
      "type": "error"
    },
    {
      "inputs": [
        {
          "internalType": "address",
          "name": "router",
          "type": "address"
        }
      ],
      "name": "InvalidRouter",
      "type": "error"
    },
    {
      "inputs": [
        {
          "internalType": "uint256",
          "name": "currentBalance",
          "type": "uint256"
        },
        {
          "internalType": "uint256",
          "name": "calculatedFees",
          "type": "uint256"
        }
      ],
      "name": "NotEnoughBalance",
      "type": "error"
    },
    {
      "inputs": [],
      "name": "NothingToWithdraw",
      "type": "error"
    },
    {
      "anonymous": false,
      "inputs": [
        {
          "indexed": true,
          "internalType": "bytes32",
          "name": "messageId",
          "type": "bytes32"
        },
        {
          "indexed": true,
          "internalType": "uint64",
          "name": "sourceChainSelector",
          "type": "uint64"
        },
        {
          "indexed": false,
          "internalType": "address",
          "name": "sender",
          "type": "address"
        },
        {
          "indexed": false,
          "internalType": "uint8",
          "name": "operationType",
          "type": "uint8"
        },
        {
          "indexed": false,
          "internalType": "address",
          "name": "borrower",
          "type": "address"
        },
        {
          "indexed": false,
          "internalType": "address",
          "name": "vault",
          "type": "address"
        },
        {
          "indexed": false,
          "internalType": "uint256",
          "name": "amount",
          "type": "uint256"
        },
        {
          "indexed": false,
          "internalType": "address",
          "name": "liquidator",
          "type": "address"
        }
      ],
      "name": "MessageReceived",
      "type": "event"
    },
    {
      "anonymous": false,
      "inputs": [
        {
          "indexed": true,
          "internalType": "bytes32",
          "name": "messageId",
          "type": "bytes32"
        },
        {
          "indexed": true,
          "internalType": "uint64",
          "name": "destinationChainSelector",
          "type": "uint64"
        },
        {
          "indexed": false,
          "internalType": "address",
          "name": "receiver",
          "type": "address"
        },
        {
          "indexed": false,
          "internalType": "uint8",
          "name": "operationType",
          "type": "uint8"
        },
        {
          "indexed": false,
          "internalType": "address",
          "name": "borrower",
          "type": "address"
        },
        {
          "indexed": false,
          "internalType": "address",
          "name": "vault",
          "type": "address"
        },
        {
          "indexed": false,
          "internalType": "uint256",
          "name": "amount",
          "type": "uint256"
        },
        {
          "indexed": false,
          "internalType": "address",
          "name": "liquidator",
          "type": "address"
        },
        {
          "indexed": false,
          "internalType": "address",
          "name": "feeToken",
          "type": "address"
        },
        {
          "indexed": false,
          "internalType": "uint256",
          "name": "fees",
          "type": "uint256"
        }
      ],
      "name": "MessageSent",
      "type": "event"
    },
    {
      "anonymous": false,
      "inputs": [
        {
          "indexed": true,
          "internalType": "address",
          "name": "from",
          "type": "address"
        },
        {
          "indexed": true,
          "internalType": "address",
          "name": "to",
          "type": "address"
        }
      ],
      "name": "OwnershipTransferRequested",
      "type": "event"
    },
    {
      "anonymous": false,
      "inputs": [
        {
          "indexed": true,
          "internalType": "address",
          "name": "from",
          "type": "address"
        },
        {
          "indexed": true,
          "internalType": "address",
          "name": "to",
          "type": "address"
        }
      ],
      "name": "OwnershipTransferred",
      "type": "event"
    },
    {
      "inputs": [],
      "name": "BORROW",
      "outputs": [
        {
          "internalType": "uint8",
          "name": "",
          "type": "uint8"
        }
      ],
      "stateMutability": "view",
      "type": "function"
    },
    {
      "inputs": [],
      "name": "LIQUIDATE",
      "outputs": [
        {
          "internalType": "uint8",
          "name": "",
          "type": "uint8"
        }
      ],
      "stateMutability": "view",
      "type": "function"
    },
    {
      "inputs": [],
      "name": "REPAY",
      "outputs": [
        {
          "internalType": "uint8",
          "name": "",
          "type": "uint8"
        }
      ],
      "stateMutability": "view",
      "type": "function"
    },
    {
      "inputs": [],
      "name": "acceptOwnership",
      "outputs": [],
      "stateMutability": "nonpayable",
      "type": "function"
    },
    {
      "inputs": [
        {
          "components": [
            {
              "internalType": "bytes32",
              "name": "messageId",
              "type": "bytes32"
            },
            {
              "internalType": "uint64",
              "name": "sourceChainSelector",
              "type": "uint64"
            },
            {
              "internalType": "bytes",
              "name": "sender",
              "type": "bytes"
            },
            {
              "internalType": "bytes",
              "name": "data",
              "type": "bytes"
            },
            {
              "components": [
                {
                  "internalType": "address",
                  "name": "token",
                  "type": "address"
                },
                {
                  "internalType": "uint256",
                  "name": "amount",
                  "type": "uint256"
                }
              ],
              "internalType": "struct Client.EVMTokenAmount[]",
              "name": "destTokenAmounts",
              "type": "tuple[]"
            }
          ],
          "internalType": "struct Client.Any2EVMMessage",
          "name": "message",
          "type": "tuple"
        }
      ],
      "name": "ccipReceive",
      "outputs": [],
      "stateMutability": "nonpayable",
      "type": "function"
    },
    {
      "inputs": [],
      "name": "destinationChainSelector",
      "outputs": [
        {
          "internalType": "uint64",
          "name": "",
          "type": "uint64"
        }
      ],
      "stateMutability": "view",
      "type": "function"
    },
    {
      "inputs": [],
      "name": "getRouter",
      "outputs": [
        {
          "internalType": "address",
          "name": "",
          "type": "address"
        }
      ],
      "stateMutability": "view",
      "type": "function"
    },
    {
      "inputs": [],
      "name": "ghoulRouter",
      "outputs": [
        {
          "internalType": "address",
          "name": "",
          "type": "address"
        }
      ],
      "stateMutability": "view",
      "type": "function"
    },
    {
      "inputs": [
        {
          "internalType": "bytes32",
          "name": "",
          "type": "bytes32"
        }
      ],
      "name": "messages",
      "outputs": [
        {
          "internalType": "bytes",
          "name": "",
          "type": "bytes"
        }
      ],
      "stateMutability": "view",
      "type": "function"
    },
    {
      "inputs": [],
      "name": "owner",
      "outputs": [
        {
          "internalType": "address",
          "name": "",
          "type": "address"
        }
      ],
      "stateMutability": "view",
      "type": "function"
    },
    {
      "inputs": [
        {
          "internalType": "address",
          "name": "_borrower",
          "type": "address"
        },
        {
          "internalType": "address",
          "name": "_vault",
          "type": "address"
        },
        {
          "internalType": "uint256",
          "name": "_amount",
          "type": "uint256"
        }
      ],
      "name": "repay",
      "outputs": [],
      "stateMutability": "nonpayable",
      "type": "function"
    },
    {
      "inputs": [
        {
          "internalType": "bytes4",
          "name": "interfaceId",
          "type": "bytes4"
        }
      ],
      "name": "supportsInterface",
      "outputs": [
        {
          "internalType": "bool",
          "name": "",
          "type": "bool"
        }
      ],
      "stateMutability": "view",
      "type": "function"
    },
    {
      "inputs": [
        {
          "internalType": "address",
          "name": "to",
          "type": "address"
        }
      ],
      "name": "transferOwnership",
      "outputs": [],
      "stateMutability": "nonpayable",
      "type": "function"
    },
    {
      "inputs": [
        {
          "internalType": "address",
          "name": "_router",
          "type": "address"
        }
      ],
      "name": "updateGhoulRouter",
      "outputs": [],
      "stateMutability": "nonpayable",
      "type": "function"
    },
    {
      "inputs": [
        {
          "internalType": "address",
          "name": "_beneficiary",
          "type": "address"
        }
      ],
      "name": "withdraw",
      "outputs": [],
      "stateMutability": "nonpayable",
      "type": "function"
    },
    {
      "inputs": [
        {
          "internalType": "address",
          "name": "_beneficiary",
          "type": "address"
        },
        {
          "internalType": "address",
          "name": "_token",
          "type": "address"
        }
      ],
      "name": "withdrawToken",
      "outputs": [],
      "stateMutability": "nonpayable",
      "type": "function"
    },
    {
      "stateMutability": "payable",
      "type": "receive"
    }
  ],
  "bytecode": "0x60a06040523480156200001157600080fd5b5060405162001ab638038062001ab683398101604081905262000034916200021e565b828233806000846001600160a01b0381166200006b576040516335fdcccd60e21b8152600060048201526024015b60405180910390fd5b6001600160a01b039081166080528216620000c95760405162461bcd60e51b815260206004820152601860248201527f43616e6e6f7420736574206f776e657220746f207a65726f0000000000000000604482015260640162000062565b600080546001600160a01b0319166001600160a01b0384811691909117909155811615620000fc57620000fc8162000156565b5050600280546001600160a01b039384166001600160a01b031990911617905550600380546001600160401b03909716600160a01b026001600160e01b031990971693909116929092179490941790555062000288915050565b336001600160a01b03821603620001b05760405162461bcd60e51b815260206004820152601760248201527f43616e6e6f74207472616e7366657220746f2073656c66000000000000000000604482015260640162000062565b600180546001600160a01b0319166001600160a01b0383811691821790925560008054604051929316917fed8889f560326eb138920d842192f0eb3dd22b4f139c87a2c57538e05bae12789190a350565b80516001600160a01b03811681146200021957600080fd5b919050565b600080600080608085870312156200023557600080fd5b84516001600160401b03811681146200024d57600080fd5b93506200025d6020860162000201565b92506200026d6040860162000201565b91506200027d6060860162000201565b905092959194509250565b60805161180b620002ab600039600081816102ef0152610851015261180b6000f3fe6080604052600436106100f75760003560e01c8063721672b21161008a5780638da5cb5b116100595780638da5cb5b146102ae578063b0f479a1146102e0578063cd129bfc14610313578063f2fde38b1461033357600080fd5b8063721672b21461024f57806379ba5097146102645780638500aca91461027957806385572ffb1461028e57600080fd5b806331db1ffc116100c657806331db1ffc146101ae5780633aeac4e1146101ef57806351cff8d91461020f57806365f07df91461022f57600080fd5b806301ffc9a71461010357806304956839146101385780631da649cf1461015f5780632bbd59ca1461018157600080fd5b366100fe57005b600080fd5b34801561010f57600080fd5b5061012361011e3660046110d6565b610353565b60405190151581526020015b60405180910390f35b34801561014457600080fd5b5061014d600281565b60405160ff909116815260200161012f565b34801561016b57600080fd5b5061017f61017a366004611134565b6103ec565b005b34801561018d57600080fd5b506101a161019c366004611175565b6104bb565b60405161012f91906111d4565b3480156101ba57600080fd5b506003546101d690600160a01b900467ffffffffffffffff1681565b60405167ffffffffffffffff909116815260200161012f565b3480156101fb57600080fd5b5061017f61020a3660046111e7565b610555565b34801561021b57600080fd5b5061017f61022a366004611220565b610677565b34801561023b57600080fd5b5061017f61024a366004611220565b610751565b34801561025b57600080fd5b5061014d600181565b34801561027057600080fd5b5061017f610788565b34801561028557600080fd5b5061014d600081565b34801561029a57600080fd5b5061017f6102a936600461123d565b610846565b3480156102ba57600080fd5b506000546001600160a01b03165b6040516001600160a01b03909116815260200161012f565b3480156102ec57600080fd5b507f00000000000000000000000000000000000000000000000000000000000000006102c8565b34801561031f57600080fd5b506004546102c8906001600160a01b031681565b34801561033f57600080fd5b5061017f61034e366004611220565b6108be565b60007fffffffff0000000000000000000000000000000000000000000000000000000082167f85572ffb0000000000000000000000000000000000000000000000000000000014806103e657507fffffffff0000000000000000000000000000000000000000000000000000000082167f01ffc9a700000000000000000000000000000000000000000000000000000000145b92915050565b6003546040517f23b872dd0000000000000000000000000000000000000000000000000000000081526001600160a01b0385811660048301526000602483015260448201849052909116906323b872dd906064016020604051808303816000875af115801561045f573d6000803e3d6000fd5b505050506040513d601f19601f820116820180604052508101906104839190611278565b506003546004546104b591600160a01b900467ffffffffffffffff16906001600160a01b0316600186868660006108cf565b50505050565b600560205260009081526040902080546104d49061129a565b80601f01602080910402602001604051908101604052809291908181526020018280546105009061129a565b801561054d5780601f106105225761010080835404028352916020019161054d565b820191906000526020600020905b81548152906001019060200180831161053057829003601f168201915b505050505081565b61055d610c97565b6040516370a0823160e01b81523060048201526000906001600160a01b038316906370a0823190602401602060405180830381865afa1580156105a4573d6000803e3d6000fd5b505050506040513d601f19601f820116820180604052508101906105c891906112d4565b9050806000036105eb57604051630686827b60e51b815260040160405180910390fd5b6040517fa9059cbb0000000000000000000000000000000000000000000000000000000081526001600160a01b0384811660048301526024820183905283169063a9059cbb906044016020604051808303816000875af1158015610653573d6000803e3d6000fd5b505050506040513d601f19601f820116820180604052508101906104b59190611278565b61067f610c97565b4760008190036106a257604051630686827b60e51b815260040160405180910390fd5b6000826001600160a01b03168260405160006040518083038185875af1925050503d80600081146106ef576040519150601f19603f3d011682016040523d82523d6000602084013e6106f4565b606091505b505090508061074c576040517f9d11f5630000000000000000000000000000000000000000000000000000000081523360048201526001600160a01b0384166024820152604481018390526064015b60405180910390fd5b505050565b610759610c97565b6004805473ffffffffffffffffffffffffffffffffffffffff19166001600160a01b0392909216919091179055565b6001546001600160a01b031633146107e25760405162461bcd60e51b815260206004820152601660248201527f4d7573742062652070726f706f736564206f776e6572000000000000000000006044820152606401610743565b600080543373ffffffffffffffffffffffffffffffffffffffff19808316821784556001805490911690556040516001600160a01b0390921692909183917f8be0079c531659141344cd1fd0a4f28419497f9722a3daafe3b4186f6b6457e091a350565b336001600160a01b037f000000000000000000000000000000000000000000000000000000000000000016146108aa576040517fd7f73334000000000000000000000000000000000000000000000000000000008152336004820152602401610743565b6108bb6108b6826114ba565b610cf3565b50565b6108c6610c97565b6108bb81610df1565b60025460009081906108f09089906001600160a01b03168989898989610ea7565b90506000306001600160a01b031663b0f479a16040518163ffffffff1660e01b8152600401602060405180830381865afa158015610932573d6000803e3d6000fd5b505050506040513d601f19601f820116820180604052508101906109569190611567565b90506000816001600160a01b03166320487ded8c856040518363ffffffff1660e01b8152600401610988929190611584565b602060405180830381865afa1580156109a5573d6000803e3d6000fd5b505050506040513d601f19601f820116820180604052508101906109c991906112d4565b6002546040516370a0823160e01b81523060048201529192506001600160a01b0316906370a0823190602401602060405180830381865afa158015610a12573d6000803e3d6000fd5b505050506040513d601f19601f82011682018060405250810190610a3691906112d4565b811115610ae6576002546040516370a0823160e01b81523060048201526001600160a01b03909116906370a0823190602401602060405180830381865afa158015610a85573d6000803e3d6000fd5b505050506040513d601f19601f82011682018060405250810190610aa991906112d4565b6040517f8f0f4206000000000000000000000000000000000000000000000000000000008152600481019190915260248101829052604401610743565b6002546040517f095ea7b30000000000000000000000000000000000000000000000000000000081526001600160a01b038481166004830152602482018490529091169063095ea7b3906044016020604051808303816000875af1158015610b52573d6000803e3d6000fd5b505050506040513d601f19601f82011682018060405250810190610b769190611278565b506040517f96f4e9f90000000000000000000000000000000000000000000000000000000081526001600160a01b038316906396f4e9f990610bbe908e908790600401611584565b6020604051808303816000875af1158015610bdd573d6000803e3d6000fd5b505050506040513d601f19601f82011682018060405250810190610c0191906112d4565b600254604080516001600160a01b038e8116825260ff8e1660208301528c8116828401528b81166060830152608082018b905289811660a083015290921660c083015260e082018490525191955067ffffffffffffffff8d169186917fbd320bb97629e32977ae252f936e3cbd3cedc4354b662e47dfc5d5e395efcbb891908190036101000190a3505050979650505050505050565b6000546001600160a01b03163314610cf15760405162461bcd60e51b815260206004820152601660248201527f4f6e6c792063616c6c61626c65206279206f776e6572000000000000000000006044820152606401610743565b565b60608101518151600090815260056020526040902090610d1390826116a4565b5060008060008060008560600151806020019051810190610d349190611764565b8095508196508297508398508499505050505050856020015167ffffffffffffffff1686600001517fc4b0f235ab919bbe0a0f304d0018e3c57819199904d003b0204613eee61598208860400151806020019051810190610d959190611567565b604080516001600160a01b03928316815260ff8b1660208201528983168183015288831660608201526080810188905291861660a0830152519081900360c00190a360ff8516610de957610de9848361105b565b505050505050565b336001600160a01b03821603610e495760405162461bcd60e51b815260206004820152601760248201527f43616e6e6f74207472616e7366657220746f2073656c660000000000000000006044820152606401610743565b6001805473ffffffffffffffffffffffffffffffffffffffff19166001600160a01b0383811691821790925560008054604051929316917fed8889f560326eb138920d842192f0eb3dd22b4f139c87a2c57538e05bae12789190a350565b610ee26040518060a0016040528060608152602001606081526020016060815260200160006001600160a01b03168152602001606081525090565b6040805160ff881660208201526001600160a01b038088169282019290925281861660608201526080810185905290831660a082015260009060c00160408051808303601f1901815260a083019091526001600160a01b038b1660c083015291508060e0810160408051808303601f190181529181529082526020808301859052815160008082529181018352929091019190610fa1565b6040805180820190915260008082526020820152815260200190600190039081610f7a5790505b508152602001896001600160a01b0316815260200161104c604051806040016040528062030d408152602001600115158152506040805182516024820152602092830151151560448083019190915282518083039091018152606490910190915290810180517bffffffffffffffffffffffffffffffffffffffffffffffffffffffff167f97a657c90000000000000000000000000000000000000000000000000000000017905290565b90529998505050505050505050565b6003546040517f40c10f190000000000000000000000000000000000000000000000000000000081526001600160a01b03848116600483015260248201849052909116906340c10f1990604401600060405180830381600087803b1580156110c257600080fd5b505af1158015610de9573d6000803e3d6000fd5b6000602082840312156110e857600080fd5b81357fffffffff000000000000000000000000000000000000000000000000000000008116811461111857600080fd5b9392505050565b6001600160a01b03811681146108bb57600080fd5b60008060006060848603121561114957600080fd5b83356111548161111f565b925060208401356111648161111f565b929592945050506040919091013590565b60006020828403121561118757600080fd5b5035919050565b6000815180845260005b818110156111b457602081850181015186830182015201611198565b506000602082860101526020601f19601f83011685010191505092915050565b602081526000611118602083018461118e565b600080604083850312156111fa57600080fd5b82356112058161111f565b915060208301356112158161111f565b809150509250929050565b60006020828403121561123257600080fd5b81356111188161111f565b60006020828403121561124f57600080fd5b813567ffffffffffffffff81111561126657600080fd5b820160a0818503121561111857600080fd5b60006020828403121561128a57600080fd5b8151801515811461111857600080fd5b600181811c908216806112ae57607f821691505b6020821081036112ce57634e487b7160e01b600052602260045260246000fd5b50919050565b6000602082840312156112e657600080fd5b5051919050565b634e487b7160e01b600052604160045260246000fd5b6040805190810167ffffffffffffffff81118282101715611326576113266112ed565b60405290565b60405160a0810167ffffffffffffffff81118282101715611326576113266112ed565b604051601f8201601f1916810167ffffffffffffffff81118282101715611378576113786112ed565b604052919050565b803567ffffffffffffffff8116811461139857600080fd5b919050565b600082601f8301126113ae57600080fd5b813567ffffffffffffffff8111156113c8576113c86112ed565b6113db601f8201601f191660200161134f565b8181528460208386010111156113f057600080fd5b816020850160208301376000918101602001919091529392505050565b600082601f83011261141e57600080fd5b8135602067ffffffffffffffff82111561143a5761143a6112ed565b611448818360051b0161134f565b82815260069290921b8401810191818101908684111561146757600080fd5b8286015b848110156114af57604081890312156114845760008081fd5b61148c611303565b81356114978161111f565b8152818501358582015283529183019160400161146b565b509695505050505050565b600060a082360312156114cc57600080fd5b6114d461132c565b823581526114e460208401611380565b6020820152604083013567ffffffffffffffff8082111561150457600080fd5b6115103683870161139d565b6040840152606085013591508082111561152957600080fd5b6115353683870161139d565b6060840152608085013591508082111561154e57600080fd5b5061155b3682860161140d565b60808301525092915050565b60006020828403121561157957600080fd5b81516111188161111f565b6000604067ffffffffffffffff8516835260208181850152845160a0838601526115b160e086018261118e565b905081860151603f19808784030160608801526115ce838361118e565b88860151888203830160808a01528051808352908601945060009350908501905b8084101561162157845180516001600160a01b03168352860151868301529385019360019390930192908601906115ef565b5060608901516001600160a01b031660a08901526080890151888203830160c08a01529550611650818761118e565b9a9950505050505050505050565b601f82111561074c57600081815260208120601f850160051c810160208610156116855750805b601f850160051c820191505b81811015610de957828155600101611691565b815167ffffffffffffffff8111156116be576116be6112ed565b6116d2816116cc845461129a565b8461165e565b602080601f83116001811461170757600084156116ef5750858301515b600019600386901b1c1916600185901b178555610de9565b600085815260208120601f198616915b8281101561173657888601518255948401946001909101908401611717565b50858210156117545787850151600019600388901b60f8161c191681555b5050505050600190811b01905550565b600080600080600060a0868803121561177c57600080fd5b855160ff8116811461178d57600080fd5b602087015190955061179e8161111f565b60408701519094506117af8161111f565b6060870151608088015191945092506117c78161111f565b80915050929550929590935056fea2646970667358221220b023adec003f8783605fb76031a8196077282a1118e00eb6f9364ff8c3f0ce0f64736f6c63430008130033",
  "linkReferences": {},
  "deployedLinkReferences": {}
}