{
  "_format": "hh-sol-artifact-1",
  "contractName": "GhoToken",
  "sourceName": "contracts/gho-core/gho/GhoToken.sol",
  "abi": [
    {
      "inputs": [
        {
          "internalType": "address",
          "name": "admin",
          "type": "address"
        }
      ],
      "stateMutability": "nonpayable",
      "type": "constructor"
    },
    {
      "anonymous": false,
      "inputs": [
        {
          "indexed": true,
          "internalType": "address",
          "name": "owner",
          "type": "address"
        },
        {
          "indexed": true,
          "internalType": "address",
          "name": "spender",
          "type": "address"
        },
        {
          "indexed": false,
          "internalType": "uint256",
          "name": "value",
          "type": "uint256"
        }
      ],
      "name": "Approval",
      "type": "event"
    },
    {
      "anonymous": false,
      "inputs": [
        {
          "indexed": true,
          "internalType": "address",
          "name": "facilitatorAddress",
          "type": "address"
        },
        {
          "indexed": true,
          "internalType": "bytes32",
          "name": "label",
          "type": "bytes32"
        },
        {
          "indexed": false,
          "internalType": "uint256",
          "name": "bucketCapacity",
          "type": "uint256"
        }
      ],
      "name": "FacilitatorAdded",
      "type": "event"
    },
    {
      "anonymous": false,
      "inputs": [
        {
          "indexed": true,
          "internalType": "address",
          "name": "facilitatorAddress",
          "type": "address"
        },
        {
          "indexed": false,
          "internalType": "uint256",
          "name": "oldCapacity",
          "type": "uint256"
        },
        {
          "indexed": false,
          "internalType": "uint256",
          "name": "newCapacity",
          "type": "uint256"
        }
      ],
      "name": "FacilitatorBucketCapacityUpdated",
      "type": "event"
    },
    {
      "anonymous": false,
      "inputs": [
        {
          "indexed": true,
          "internalType": "address",
          "name": "facilitatorAddress",
          "type": "address"
        },
        {
          "indexed": false,
          "internalType": "uint256",
          "name": "oldLevel",
          "type": "uint256"
        },
        {
          "indexed": false,
          "internalType": "uint256",
          "name": "newLevel",
          "type": "uint256"
        }
      ],
      "name": "FacilitatorBucketLevelUpdated",
      "type": "event"
    },
    {
      "anonymous": false,
      "inputs": [
        {
          "indexed": true,
          "internalType": "address",
          "name": "facilitatorAddress",
          "type": "address"
        }
      ],
      "name": "FacilitatorRemoved",
      "type": "event"
    },
    {
      "anonymous": false,
      "inputs": [
        {
          "indexed": true,
          "internalType": "bytes32",
          "name": "role",
          "type": "bytes32"
        },
        {
          "indexed": true,
          "internalType": "bytes32",
          "name": "previousAdminRole",
          "type": "bytes32"
        },
        {
          "indexed": true,
          "internalType": "bytes32",
          "name": "newAdminRole",
          "type": "bytes32"
        }
      ],
      "name": "RoleAdminChanged",
      "type": "event"
    },
    {
      "anonymous": false,
      "inputs": [
        {
          "indexed": true,
          "internalType": "bytes32",
          "name": "role",
          "type": "bytes32"
        },
        {
          "indexed": true,
          "internalType": "address",
          "name": "account",
          "type": "address"
        },
        {
          "indexed": true,
          "internalType": "address",
          "name": "sender",
          "type": "address"
        }
      ],
      "name": "RoleGranted",
      "type": "event"
    },
    {
      "anonymous": false,
      "inputs": [
        {
          "indexed": true,
          "internalType": "bytes32",
          "name": "role",
          "type": "bytes32"
        },
        {
          "indexed": true,
          "internalType": "address",
          "name": "account",
          "type": "address"
        },
        {
          "indexed": true,
          "internalType": "address",
          "name": "sender",
          "type": "address"
        }
      ],
      "name": "RoleRevoked",
      "type": "event"
    },
    {
      "anonymous": false,
      "inputs": [
        {
          "indexed": true,
          "internalType": "address",
          "name": "from",
          "type": "address"
        },
        {
          "indexed": true,
          "internalType": "address",
          "name": "to",
          "type": "address"
        },
        {
          "indexed": false,
          "internalType": "uint256",
          "name": "value",
          "type": "uint256"
        }
      ],
      "name": "Transfer",
      "type": "event"
    },
    {
      "inputs": [],
      "name": "BUCKET_MANAGER_ROLE",
      "outputs": [
        {
          "internalType": "bytes32",
          "name": "",
          "type": "bytes32"
        }
      ],
      "stateMutability": "view",
      "type": "function"
    },
    {
      "inputs": [],
      "name": "DEFAULT_ADMIN_ROLE",
      "outputs": [
        {
          "internalType": "bytes32",
          "name": "",
          "type": "bytes32"
        }
      ],
      "stateMutability": "view",
      "type": "function"
    },
    {
      "inputs": [],
      "name": "DOMAIN_SEPARATOR",
      "outputs": [
        {
          "internalType": "bytes32",
          "name": "",
          "type": "bytes32"
        }
      ],
      "stateMutability": "view",
      "type": "function"
    },
    {
      "inputs": [],
      "name": "FACILITATOR_MANAGER_ROLE",
      "outputs": [
        {
          "internalType": "bytes32",
          "name": "",
          "type": "bytes32"
        }
      ],
      "stateMutability": "view",
      "type": "function"
    },
    {
      "inputs": [],
      "name": "PERMIT_TYPEHASH",
      "outputs": [
        {
          "internalType": "bytes32",
          "name": "",
          "type": "bytes32"
        }
      ],
      "stateMutability": "view",
      "type": "function"
    },
    {
      "inputs": [
        {
          "internalType": "address",
          "name": "facilitatorAddress",
          "type": "address"
        },
        {
          "internalType": "string",
          "name": "facilitatorLabel",
          "type": "string"
        },
        {
          "internalType": "uint128",
          "name": "bucketCapacity",
          "type": "uint128"
        }
      ],
      "name": "addFacilitator",
      "outputs": [],
      "stateMutability": "nonpayable",
      "type": "function"
    },
    {
      "inputs": [
        {
          "internalType": "address",
          "name": "",
          "type": "address"
        },
        {
          "internalType": "address",
          "name": "",
          "type": "address"
        }
      ],
      "name": "allowance",
      "outputs": [
        {
          "internalType": "uint256",
          "name": "",
          "type": "uint256"
        }
      ],
      "stateMutability": "view",
      "type": "function"
    },
    {
      "inputs": [
        {
          "internalType": "address",
          "name": "spender",
          "type": "address"
        },
        {
          "internalType": "uint256",
          "name": "amount",
          "type": "uint256"
        }
      ],
      "name": "approve",
      "outputs": [
        {
          "internalType": "bool",
          "name": "",
          "type": "bool"
        }
      ],
      "stateMutability": "nonpayable",
      "type": "function"
    },
    {
      "inputs": [
        {
          "internalType": "address",
          "name": "",
          "type": "address"
        }
      ],
      "name": "balanceOf",
      "outputs": [
        {
          "internalType": "uint256",
          "name": "",
          "type": "uint256"
        }
      ],
      "stateMutability": "view",
      "type": "function"
    },
    {
      "inputs": [
        {
          "internalType": "uint256",
          "name": "amount",
          "type": "uint256"
        }
      ],
      "name": "burn",
      "outputs": [],
      "stateMutability": "nonpayable",
      "type": "function"
    },
    {
      "inputs": [],
      "name": "decimals",
      "outputs": [
        {
          "internalType": "uint8",
          "name": "",
          "type": "uint8"
        }
      ],
      "stateMutability": "view",
      "type": "function"
    },
    {
      "inputs": [
        {
          "internalType": "address",
          "name": "facilitator",
          "type": "address"
        }
      ],
      "name": "getFacilitator",
      "outputs": [
        {
          "components": [
            {
              "internalType": "uint128",
              "name": "bucketCapacity",
              "type": "uint128"
            },
            {
              "internalType": "uint128",
              "name": "bucketLevel",
              "type": "uint128"
            },
            {
              "internalType": "string",
              "name": "label",
              "type": "string"
            }
          ],
          "internalType": "struct IGhoToken.Facilitator",
          "name": "",
          "type": "tuple"
        }
      ],
      "stateMutability": "view",
      "type": "function"
    },
    {
      "inputs": [
        {
          "internalType": "address",
          "name": "facilitator",
          "type": "address"
        }
      ],
      "name": "getFacilitatorBucket",
      "outputs": [
        {
          "internalType": "uint256",
          "name": "",
          "type": "uint256"
        },
        {
          "internalType": "uint256",
          "name": "",
          "type": "uint256"
        }
      ],
      "stateMutability": "view",
      "type": "function"
    },
    {
      "inputs": [],
      "name": "getFacilitatorsList",
      "outputs": [
        {
          "internalType": "address[]",
          "name": "",
          "type": "address[]"
        }
      ],
      "stateMutability": "view",
      "type": "function"
    },
    {
      "inputs": [
        {
          "internalType": "bytes32",
          "name": "role",
          "type": "bytes32"
        }
      ],
      "name": "getRoleAdmin",
      "outputs": [
        {
          "internalType": "bytes32",
          "name": "",
          "type": "bytes32"
        }
      ],
      "stateMutability": "view",
      "type": "function"
    },
    {
      "inputs": [
        {
          "internalType": "bytes32",
          "name": "role",
          "type": "bytes32"
        },
        {
          "internalType": "address",
          "name": "account",
          "type": "address"
        }
      ],
      "name": "grantRole",
      "outputs": [],
      "stateMutability": "nonpayable",
      "type": "function"
    },
    {
      "inputs": [
        {
          "internalType": "bytes32",
          "name": "role",
          "type": "bytes32"
        },
        {
          "internalType": "address",
          "name": "account",
          "type": "address"
        }
      ],
      "name": "hasRole",
      "outputs": [
        {
          "internalType": "bool",
          "name": "",
          "type": "bool"
        }
      ],
      "stateMutability": "view",
      "type": "function"
    },
    {
      "inputs": [
        {
          "internalType": "address",
          "name": "account",
          "type": "address"
        },
        {
          "internalType": "uint256",
          "name": "amount",
          "type": "uint256"
        }
      ],
      "name": "mint",
      "outputs": [],
      "stateMutability": "nonpayable",
      "type": "function"
    },
    {
      "inputs": [],
      "name": "name",
      "outputs": [
        {
          "internalType": "string",
          "name": "",
          "type": "string"
        }
      ],
      "stateMutability": "view",
      "type": "function"
    },
    {
      "inputs": [
        {
          "internalType": "address",
          "name": "",
          "type": "address"
        }
      ],
      "name": "nonces",
      "outputs": [
        {
          "internalType": "uint256",
          "name": "",
          "type": "uint256"
        }
      ],
      "stateMutability": "view",
      "type": "function"
    },
    {
      "inputs": [
        {
          "internalType": "address",
          "name": "owner",
          "type": "address"
        },
        {
          "internalType": "address",
          "name": "spender",
          "type": "address"
        },
        {
          "internalType": "uint256",
          "name": "value",
          "type": "uint256"
        },
        {
          "internalType": "uint256",
          "name": "deadline",
          "type": "uint256"
        },
        {
          "internalType": "uint8",
          "name": "v",
          "type": "uint8"
        },
        {
          "internalType": "bytes32",
          "name": "r",
          "type": "bytes32"
        },
        {
          "internalType": "bytes32",
          "name": "s",
          "type": "bytes32"
        }
      ],
      "name": "permit",
      "outputs": [],
      "stateMutability": "nonpayable",
      "type": "function"
    },
    {
      "inputs": [
        {
          "internalType": "address",
          "name": "facilitatorAddress",
          "type": "address"
        }
      ],
      "name": "removeFacilitator",
      "outputs": [],
      "stateMutability": "nonpayable",
      "type": "function"
    },
    {
      "inputs": [
        {
          "internalType": "bytes32",
          "name": "role",
          "type": "bytes32"
        },
        {
          "internalType": "address",
          "name": "account",
          "type": "address"
        }
      ],
      "name": "renounceRole",
      "outputs": [],
      "stateMutability": "nonpayable",
      "type": "function"
    },
    {
      "inputs": [
        {
          "internalType": "bytes32",
          "name": "role",
          "type": "bytes32"
        },
        {
          "internalType": "address",
          "name": "account",
          "type": "address"
        }
      ],
      "name": "revokeRole",
      "outputs": [],
      "stateMutability": "nonpayable",
      "type": "function"
    },
    {
      "inputs": [
        {
          "internalType": "address",
          "name": "facilitator",
          "type": "address"
        },
        {
          "internalType": "uint128",
          "name": "newCapacity",
          "type": "uint128"
        }
      ],
      "name": "setFacilitatorBucketCapacity",
      "outputs": [],
      "stateMutability": "nonpayable",
      "type": "function"
    },
    {
      "inputs": [
        {
          "internalType": "bytes4",
          "name": "interfaceId",
          "type": "bytes4"
        }
      ],
      "name": "supportsInterface",
      "outputs": [
        {
          "internalType": "bool",
          "name": "",
          "type": "bool"
        }
      ],
      "stateMutability": "view",
      "type": "function"
    },
    {
      "inputs": [],
      "name": "symbol",
      "outputs": [
        {
          "internalType": "string",
          "name": "",
          "type": "string"
        }
      ],
      "stateMutability": "view",
      "type": "function"
    },
    {
      "inputs": [],
      "name": "totalSupply",
      "outputs": [
        {
          "internalType": "uint256",
          "name": "",
          "type": "uint256"
        }
      ],
      "stateMutability": "view",
      "type": "function"
    },
    {
      "inputs": [
        {
          "internalType": "address",
          "name": "to",
          "type": "address"
        },
        {
          "internalType": "uint256",
          "name": "amount",
          "type": "uint256"
        }
      ],
      "name": "transfer",
      "outputs": [
        {
          "internalType": "bool",
          "name": "",
          "type": "bool"
        }
      ],
      "stateMutability": "nonpayable",
      "type": "function"
    },
    {
      "inputs": [
        {
          "internalType": "address",
          "name": "from",
          "type": "address"
        },
        {
          "internalType": "address",
          "name": "to",
          "type": "address"
        },
        {
          "internalType": "uint256",
          "name": "amount",
          "type": "uint256"
        }
      ],
      "name": "transferFrom",
      "outputs": [
        {
          "internalType": "bool",
          "name": "",
          "type": "bool"
        }
      ],
      "stateMutability": "nonpayable",
      "type": "function"
    }
  ],
  "bytecode": "0x60e06040523480156200001157600080fd5b506040516200260538038062002605833981016040819052620000349162000216565b6040518060400160405280600981526020016823b437902a37b5b2b760b91b8152506040518060400160405280600381526020016247484f60e81b81525060128260009081620000859190620002ed565b506001620000948382620002ed565b5060ff81166080524660a052620000aa620000c6565b60c05250620000bf9150600090508262000162565b5062000437565b60007f8b73c3c69bb8fe3d512ecc4cf759cc79239f7b179b0ffacaa9a75d522b39400f6000604051620000fa9190620003b9565b6040805191829003822060208301939093528101919091527fc89efdaa54c0f20c7adf612882df0950f5a951637e0307cdcb4c672f298b8bc660608201524660808201523060a082015260c00160405160208183030381529060405280519060200120905090565b6200016e828262000172565b5050565b60008281526006602090815260408083206001600160a01b038516845290915290205460ff166200016e5760008281526006602090815260408083206001600160a01b03851684529091529020805460ff19166001179055620001d23390565b6001600160a01b0316816001600160a01b0316837f2f8788117e7eff1d82e926ec794901d17c78024a50270940304540a733656f0d60405160405180910390a45050565b6000602082840312156200022957600080fd5b81516001600160a01b03811681146200024157600080fd5b9392505050565b634e487b7160e01b600052604160045260246000fd5b600181811c908216806200027357607f821691505b6020821081036200029457634e487b7160e01b600052602260045260246000fd5b50919050565b601f821115620002e857600081815260208120601f850160051c81016020861015620002c35750805b601f850160051c820191505b81811015620002e457828155600101620002cf565b5050505b505050565b81516001600160401b0381111562000309576200030962000248565b62000321816200031a84546200025e565b846200029a565b602080601f831160018114620003595760008415620003405750858301515b600019600386901b1c1916600185901b178555620002e4565b600085815260208120601f198616915b828110156200038a5788860151825594840194600190910190840162000369565b5085821015620003a95787850151600019600388901b60f8161c191681555b5050505050600190811b01905550565b6000808354620003c9816200025e565b60018281168015620003e45760018114620003fa576200042b565b60ff19841687528215158302870194506200042b565b8760005260208060002060005b85811015620004225781548a82015290840190820162000407565b50505082870194505b50929695505050505050565b60805160a05160c05161219e620004676000396000610822015260006107f2015260006102d2015261219e6000f3fe608060405234801561001057600080fd5b50600436106101da5760003560e01c8063550d996411610104578063a217fddf116100a2578063d46ec0ed11610071578063d46ec0ed146104bd578063d505accf146104dd578063d547741f146104f0578063dd62ed3e1461050357600080fd5b8063a217fddf1461043c578063a9059cbb14610444578063aa02f94a14610457578063af93df57146104aa57600080fd5b80637fc24def116100de5780637fc24def146103d557806391d14854146103e857806395d89b4114610421578063a11812ba1461042957600080fd5b8063550d99641461036e57806370a08231146103955780637ecebe00146103b557600080fd5b80632f2ff15d1161017c57806336568abe1161014b57806336568abe1461030e57806340c10f191461032157806342966c6814610334578063433bef441461034757600080fd5b80632f2ff15d1461029157806330adf81f146102a6578063313ce567146102cd5780633644e5151461030657600080fd5b806318160ddd116101b857806318160ddd1461022f5780631ec90f2e1461024657806323b872dd1461025b578063248a9ca31461026e57600080fd5b806301ffc9a7146101df57806306fdde0314610207578063095ea7b31461021c575b600080fd5b6101f26101ed366004611ae2565b61052e565b60405190151581526020015b60405180910390f35b61020f6105c7565b6040516101fe9190611b74565b6101f261022a366004611ba3565b610655565b61023860025481565b6040519081526020016101fe565b61024e6106c1565b6040516101fe9190611bcd565b6101f2610269366004611c1a565b6106d2565b61023861027c366004611c56565b60009081526006602052604090206001015490565b6102a461029f366004611c6f565b6107c4565b005b6102387f6e71edae12b1b97f4d1f60370fef10105fa2faae0126114a169c64845d6126c981565b6102f47f000000000000000000000000000000000000000000000000000000000000000081565b60405160ff90911681526020016101fe565b6102386107ee565b6102a461031c366004611c6f565b610844565b6102a461032f366004611ba3565b6108d5565b6102a4610342366004611c56565b610a3a565b6102387f5e20732f79076148980e17b6ce9f22756f85058fe2765420ed48a504bef5a8bc81565b6102387fc7f115822aabac0cd6b9d21b08c0c63819451a58157aecad689d1b5674fad40881565b6102386103a3366004611c9b565b60036020526000908152604090205481565b6102386103c3366004611c9b565b60056020526000908152604090205481565b6102a46103e3366004611ccd565b610b1f565b6101f26103f6366004611c6f565b60009182526006602090815260408084206001600160a01b0393909316845291905290205460ff1690565b61020f610cc1565b6102a4610437366004611c9b565b610cce565b610238600081565b6101f2610452366004611ba3565b610e79565b610495610465366004611c9b565b6001600160a01b03166000908152600760205260409020546001600160801b0380821692600160801b9092041690565b604080519283526020830191909152016101fe565b6102a46104b8366004611d61565b610ef1565b6104d06104cb366004611c9b565b61100b565b6040516101fe9190611d8b565b6102a46104eb366004611dcf565b611104565b6102a46104fe366004611c6f565b61137f565b610238610511366004611e42565b600460209081526000928352604080842090915290825290205481565b60007fffffffff0000000000000000000000000000000000000000000000000000000082167f7965db0b0000000000000000000000000000000000000000000000000000000014806105c157507f01ffc9a7000000000000000000000000000000000000000000000000000000007fffffffff000000000000000000000000000000000000000000000000000000008316145b92915050565b600080546105d490611e6c565b80601f016020809104026020016040519081016040528092919081815260200182805461060090611e6c565b801561064d5780601f106106225761010080835404028352916020019161064d565b820191906000526020600020905b81548152906001019060200180831161063057829003601f168201915b505050505081565b3360008181526004602090815260408083206001600160a01b038716808552925280832085905551919290917f8c5be1e5ebec7d5bd14f71427d1e84f3dd0314c0f7b2291e5b200ac8c7c3b925906106b09086815260200190565b60405180910390a350600192915050565b60606106cd60086113a4565b905090565b6001600160a01b0383166000908152600460209081526040808320338452909152812054600019811461072e576107098382611ebc565b6001600160a01b03861660009081526004602090815260408083203384529091529020555b6001600160a01b03851660009081526003602052604081208054859290610756908490611ebc565b90915550506001600160a01b03808516600081815260036020526040908190208054870190555190918716907fddf252ad1be2c89b69c2b068fc378daa952ba7f163c4a11628f55a4df523b3ef906107b19087815260200190565b60405180910390a3506001949350505050565b6000828152600660205260409020600101546107df816113b8565b6107e983836113c5565b505050565b60007f0000000000000000000000000000000000000000000000000000000000000000461461081f576106cd611467565b507f000000000000000000000000000000000000000000000000000000000000000090565b6001600160a01b03811633146108c75760405162461bcd60e51b815260206004820152602f60248201527f416363657373436f6e74726f6c3a2063616e206f6e6c792072656e6f756e636560448201527f20726f6c657320666f722073656c66000000000000000000000000000000000060648201526084015b60405180910390fd5b6108d18282611501565b5050565b600081116109255760405162461bcd60e51b815260206004820152601360248201527f494e56414c49445f4d494e545f414d4f554e540000000000000000000000000060448201526064016108be565b33600090815260076020526040812080549091600160801b9091046001600160801b0316906109548483611ecf565b83549091506001600160801b03168111156109d65760405162461bcd60e51b8152602060048201526024808201527f464143494c495441544f525f4255434b45545f43415041434954595f4558434560448201527f454445440000000000000000000000000000000000000000000000000000000060648201526084016108be565b82546001600160801b03808316600160801b0291161783556109f88585611584565b604080518381526020810183905233917facb6de9209e4f34974cb165eef5738f0cf0b4ea9819ef30d30f0f7d81272ab82910160405180910390a25050505050565b60008111610a8a5760405162461bcd60e51b815260206004820152601360248201527f494e56414c49445f4255524e5f414d4f554e540000000000000000000000000060448201526064016108be565b33600090815260076020526040812080549091600160801b9091046001600160801b031690610ab98483611ebc565b83546001600160801b03808316600160801b0291161784559050610add33856115f0565b604080518381526020810183905233917facb6de9209e4f34974cb165eef5738f0cf0b4ea9819ef30d30f0f7d81272ab8291015b60405180910390a250505050565b7f5e20732f79076148980e17b6ce9f22756f85058fe2765420ed48a504bef5a8bc610b49816113b8565b6001600160a01b0385166000908152600760205260409020600181018054610b7090611e6c565b159050610bbf5760405162461bcd60e51b815260206004820152601a60248201527f464143494c495441544f525f414c52454144595f45584953545300000000000060448201526064016108be565b83610c0c5760405162461bcd60e51b815260206004820152600d60248201527f494e56414c49445f4c4142454c0000000000000000000000000000000000000060448201526064016108be565b60018101610c1b858783611f46565b5080546fffffffffffffffffffffffffffffffff19166001600160801b038416178155610c49600887611664565b508484604051602001610c5d929190612007565b60408051601f198184030181529082905280516020918201206001600160801b0386168352916001600160a01b038916917fdabd62626ada7b13e299389e94d768b294e5e24285ed2ffa1e5cd447c99c54ad910160405180910390a3505050505050565b600180546105d490611e6c565b7f5e20732f79076148980e17b6ce9f22756f85058fe2765420ed48a504bef5a8bc610cf8816113b8565b6001600160a01b03821660009081526007602052604081206001018054610d1e90611e6c565b905011610d6d5760405162461bcd60e51b815260206004820152601a60248201527f464143494c495441544f525f444f45535f4e4f545f455849535400000000000060448201526064016108be565b6001600160a01b038216600090815260076020526040902054600160801b90046001600160801b031615610e095760405162461bcd60e51b815260206004820152602160248201527f464143494c495441544f525f4255434b45545f4c4556454c5f4e4f545f5a455260448201527f4f0000000000000000000000000000000000000000000000000000000000000060648201526084016108be565b6001600160a01b038216600090815260076020526040812081815590610e326001830182611a94565b50610e409050600883611679565b506040516001600160a01b038316907fa8fe5b89f35f2ebd6f3f95a7ef215f4bd89179e10c101073ae76cffad14734cf90600090a25050565b33600090815260036020526040812080548391908390610e9a908490611ebc565b90915550506001600160a01b038316600081815260036020526040908190208054850190555133907fddf252ad1be2c89b69c2b068fc378daa952ba7f163c4a11628f55a4df523b3ef906106b09086815260200190565b7fc7f115822aabac0cd6b9d21b08c0c63819451a58157aecad689d1b5674fad408610f1b816113b8565b6001600160a01b03831660009081526007602052604081206001018054610f4190611e6c565b905011610f905760405162461bcd60e51b815260206004820152601a60248201527f464143494c495441544f525f444f45535f4e4f545f455849535400000000000060448201526064016108be565b6001600160a01b03831660008181526007602090815260409182902080546fffffffffffffffffffffffffffffffff1981166001600160801b03888116918217909355845192909116808352928201529092917fc795c0a4927c3b6645e4e49a5a519af936b3c1c0e4c323a3f7251063f3f4bb0e9101610b11565b6040805160608082018352600080835260208084018290528385018390526001600160a01b038616825260078152908490208451928301855280546001600160801b038082168552600160801b909104169183019190915260018101805493949293919284019161107b90611e6c565b80601f01602080910402602001604051908101604052809291908181526020018280546110a790611e6c565b80156110f45780601f106110c9576101008083540402835291602001916110f4565b820191906000526020600020905b8154815290600101906020018083116110d757829003601f168201915b5050505050815250509050919050565b428410156111545760405162461bcd60e51b815260206004820152601760248201527f5045524d49545f444541444c494e455f4558504952454400000000000000000060448201526064016108be565b600061115e6107ee565b6001600160a01b0389811660008181526005602090815260409182902080546001810190915582517f6e71edae12b1b97f4d1f60370fef10105fa2faae0126114a169c64845d6126c98184015280840194909452938c166060840152608083018b905260a083019390935260c08083018a90528151808403909101815260e0830190915280519201919091207f19010000000000000000000000000000000000000000000000000000000000006101008301526101028201929092526101228101919091526101420160408051601f198184030181528282528051602091820120600080855291840180845281905260ff88169284019290925260608301869052608083018590529092509060019060a0016020604051602081039080840390855afa158015611292573d6000803e3d6000fd5b5050604051601f1901519150506001600160a01b038116158015906112c85750886001600160a01b0316816001600160a01b0316145b6113145760405162461bcd60e51b815260206004820152600e60248201527f494e56414c49445f5349474e455200000000000000000000000000000000000060448201526064016108be565b6001600160a01b0390811660009081526004602090815260408083208b8516808552908352928190208a905551898152919350918a16917f8c5be1e5ebec7d5bd14f71427d1e84f3dd0314c0f7b2291e5b200ac8c7c3b925910160405180910390a350505050505050565b60008281526006602052604090206001015461139a816113b8565b6107e98383611501565b606060006113b18361168e565b9392505050565b6113c281336116ea565b50565b60008281526006602090815260408083206001600160a01b038516845290915290205460ff166108d15760008281526006602090815260408083206001600160a01b03851684529091529020805460ff191660011790556114233390565b6001600160a01b0316816001600160a01b0316837f2f8788117e7eff1d82e926ec794901d17c78024a50270940304540a733656f0d60405160405180910390a45050565b60007f8b73c3c69bb8fe3d512ecc4cf759cc79239f7b179b0ffacaa9a75d522b39400f60006040516114999190612017565b6040805191829003822060208301939093528101919091527fc89efdaa54c0f20c7adf612882df0950f5a951637e0307cdcb4c672f298b8bc660608201524660808201523060a082015260c00160405160208183030381529060405280519060200120905090565b60008281526006602090815260408083206001600160a01b038516845290915290205460ff16156108d15760008281526006602090815260408083206001600160a01b0385168085529252808320805460ff1916905551339285917ff6391f5c32d9c69d2a47ea670b442974b53935d1edc7fd64eb21e047a839171b9190a45050565b80600260008282546115969190611ecf565b90915550506001600160a01b0382166000818152600360209081526040808320805486019055518481527fddf252ad1be2c89b69c2b068fc378daa952ba7f163c4a11628f55a4df523b3ef91015b60405180910390a35050565b6001600160a01b03821660009081526003602052604081208054839290611618908490611ebc565b90915550506002805482900390556040518181526000906001600160a01b038416907fddf252ad1be2c89b69c2b068fc378daa952ba7f163c4a11628f55a4df523b3ef906020016115e4565b60006113b1836001600160a01b03841661175f565b60006113b1836001600160a01b0384166117ae565b6060816000018054806020026020016040519081016040528092919081815260200182805480156116de57602002820191906000526020600020905b8154815260200190600101908083116116ca575b50505050509050919050565b60008281526006602090815260408083206001600160a01b038516845290915290205460ff166108d15761171d816118a1565b6117288360206118b3565b60405160200161173992919061208d565b60408051601f198184030181529082905262461bcd60e51b82526108be91600401611b74565b60008181526001830160205260408120546117a6575081546001818101845560008481526020808220909301849055845484825282860190935260409020919091556105c1565b5060006105c1565b600081815260018301602052604081205480156118975760006117d2600183611ebc565b85549091506000906117e690600190611ebc565b905081811461184b5760008660000182815481106118065761180661210e565b90600052602060002001549050808760000184815481106118295761182961210e565b6000918252602080832090910192909255918252600188019052604090208390555b855486908061185c5761185c612124565b6001900381819060005260206000200160009055905585600101600086815260200190815260200160002060009055600193505050506105c1565b60009150506105c1565b60606105c16001600160a01b03831660145b606060006118c283600261213a565b6118cd906002611ecf565b67ffffffffffffffff8111156118e5576118e5611ee2565b6040519080825280601f01601f19166020018201604052801561190f576020820181803683370190505b5090507f3000000000000000000000000000000000000000000000000000000000000000816000815181106119465761194661210e565b60200101906001600160f81b031916908160001a9053507f7800000000000000000000000000000000000000000000000000000000000000816001815181106119915761199161210e565b60200101906001600160f81b031916908160001a90535060006119b584600261213a565b6119c0906001611ecf565b90505b6001811115611a45577f303132333435363738396162636465660000000000000000000000000000000085600f1660108110611a0157611a0161210e565b1a60f81b828281518110611a1757611a1761210e565b60200101906001600160f81b031916908160001a90535060049490941c93611a3e81612151565b90506119c3565b5083156113b15760405162461bcd60e51b815260206004820181905260248201527f537472696e67733a20686578206c656e67746820696e73756666696369656e7460448201526064016108be565b508054611aa090611e6c565b6000825580601f10611ab0575050565b601f0160209004906000526020600020908101906113c291905b80821115611ade5760008155600101611aca565b5090565b600060208284031215611af457600080fd5b81357fffffffff00000000000000000000000000000000000000000000000000000000811681146113b157600080fd5b60005b83811015611b3f578181015183820152602001611b27565b50506000910152565b60008151808452611b60816020860160208601611b24565b601f01601f19169290920160200192915050565b6020815260006113b16020830184611b48565b80356001600160a01b0381168114611b9e57600080fd5b919050565b60008060408385031215611bb657600080fd5b611bbf83611b87565b946020939093013593505050565b6020808252825182820181905260009190848201906040850190845b81811015611c0e5783516001600160a01b031683529284019291840191600101611be9565b50909695505050505050565b600080600060608486031215611c2f57600080fd5b611c3884611b87565b9250611c4660208501611b87565b9150604084013590509250925092565b600060208284031215611c6857600080fd5b5035919050565b60008060408385031215611c8257600080fd5b82359150611c9260208401611b87565b90509250929050565b600060208284031215611cad57600080fd5b6113b182611b87565b80356001600160801b0381168114611b9e57600080fd5b60008060008060608587031215611ce357600080fd5b611cec85611b87565b9350602085013567ffffffffffffffff80821115611d0957600080fd5b818701915087601f830112611d1d57600080fd5b813581811115611d2c57600080fd5b886020828501011115611d3e57600080fd5b602083019550809450505050611d5660408601611cb6565b905092959194509250565b60008060408385031215611d7457600080fd5b611d7d83611b87565b9150611c9260208401611cb6565b6020815260006001600160801b03808451166020840152806020850151166040840152506040830151606080840152611dc76080840182611b48565b949350505050565b600080600080600080600060e0888a031215611dea57600080fd5b611df388611b87565b9650611e0160208901611b87565b95506040880135945060608801359350608088013560ff81168114611e2557600080fd5b9699959850939692959460a0840135945060c09093013592915050565b60008060408385031215611e5557600080fd5b611e5e83611b87565b9150611c9260208401611b87565b600181811c90821680611e8057607f821691505b602082108103611ea057634e487b7160e01b600052602260045260246000fd5b50919050565b634e487b7160e01b600052601160045260246000fd5b818103818111156105c1576105c1611ea6565b808201808211156105c1576105c1611ea6565b634e487b7160e01b600052604160045260246000fd5b601f8211156107e957600081815260208120601f850160051c81016020861015611f1f5750805b601f850160051c820191505b81811015611f3e57828155600101611f2b565b505050505050565b67ffffffffffffffff831115611f5e57611f5e611ee2565b611f7283611f6c8354611e6c565b83611ef8565b6000601f841160018114611fa65760008515611f8e5750838201355b600019600387901b1c1916600186901b178355612000565b600083815260209020601f19861690835b82811015611fd75786850135825560209485019460019092019101611fb7565b5086821015611ff45760001960f88860031b161c19848701351681555b505060018560011b0183555b5050505050565b8183823760009101908152919050565b600080835461202581611e6c565b6001828116801561203d576001811461205257612081565b60ff1984168752821515830287019450612081565b8760005260208060002060005b858110156120785781548a82015290840190820161205f565b50505082870194505b50929695505050505050565b7f416363657373436f6e74726f6c3a206163636f756e74200000000000000000008152600083516120c5816017850160208801611b24565b7f206973206d697373696e6720726f6c65200000000000000000000000000000006017918401918201528351612102816028840160208801611b24565b01602801949350505050565b634e487b7160e01b600052603260045260246000fd5b634e487b7160e01b600052603160045260246000fd5b80820281158282048414176105c1576105c1611ea6565b60008161216057612160611ea6565b50600019019056fea26469706673582212201382024c7c3aeab978edd6ec19fd1407a840effe35303a0ff7523bc2fa0ab59a64736f6c63430008130033",
  "linkReferences": {},
  "deployedLinkReferences": {}
}