{
  "_format": "hh-sol-artifact-1",
  "contractName": "Router",
  "sourceName": "contracts/Router.sol",
  "abi": [
    {
      "inputs": [
        {
          "internalType": "uint64",
          "name": "_destChainSelector",
          "type": "uint64"
        },
        {
          "internalType": "address",
          "name": "_pool",
          "type": "address"
        },
        {
          "internalType": "address",
          "name": "_router",
          "type": "address"
        },
        {
          "internalType": "address",
          "name": "_link",
          "type": "address"
        }
      ],
      "stateMutability": "nonpayable",
      "type": "constructor"
    },
    {
      "inputs": [
        {
          "internalType": "address",
          "name": "owner",
          "type": "address"
        },
        {
          "internalType": "address",
          "name": "target",
          "type": "address"
        },
        {
          "internalType": "uint256",
          "name": "value",
          "type": "uint256"
        }
      ],
      "name": "FailedToWithdrawEth",
      "type": "error"
    },
    {
      "inputs": [
        {
          "internalType": "address",
          "name": "router",
          "type": "address"
        }
      ],
      "name": "InvalidRouter",
      "type": "error"
    },
    {
      "inputs": [
        {
          "internalType": "uint256",
          "name": "currentBalance",
          "type": "uint256"
        },
        {
          "internalType": "uint256",
          "name": "calculatedFees",
          "type": "uint256"
        }
      ],
      "name": "NotEnoughBalance",
      "type": "error"
    },
    {
      "inputs": [],
      "name": "NothingToWithdraw",
      "type": "error"
    },
    {
      "anonymous": false,
      "inputs": [
        {
          "indexed": true,
          "internalType": "address",
          "name": "owner",
          "type": "address"
        },
        {
          "indexed": true,
          "internalType": "address",
          "name": "approved",
          "type": "address"
        },
        {
          "indexed": true,
          "internalType": "uint256",
          "name": "tokenId",
          "type": "uint256"
        }
      ],
      "name": "Approval",
      "type": "event"
    },
    {
      "anonymous": false,
      "inputs": [
        {
          "indexed": true,
          "internalType": "address",
          "name": "owner",
          "type": "address"
        },
        {
          "indexed": true,
          "internalType": "address",
          "name": "operator",
          "type": "address"
        },
        {
          "indexed": false,
          "internalType": "bool",
          "name": "approved",
          "type": "bool"
        }
      ],
      "name": "ApprovalForAll",
      "type": "event"
    },
    {
      "anonymous": false,
      "inputs": [
        {
          "indexed": true,
          "internalType": "bytes32",
          "name": "messageId",
          "type": "bytes32"
        },
        {
          "indexed": true,
          "internalType": "uint64",
          "name": "sourceChainSelector",
          "type": "uint64"
        },
        {
          "indexed": false,
          "internalType": "address",
          "name": "sender",
          "type": "address"
        },
        {
          "indexed": false,
          "internalType": "uint8",
          "name": "operationType",
          "type": "uint8"
        },
        {
          "indexed": false,
          "internalType": "address",
          "name": "borrower",
          "type": "address"
        },
        {
          "indexed": false,
          "internalType": "address",
          "name": "vault",
          "type": "address"
        },
        {
          "indexed": false,
          "internalType": "uint256",
          "name": "amount",
          "type": "uint256"
        },
        {
          "indexed": false,
          "internalType": "address",
          "name": "liquidator",
          "type": "address"
        }
      ],
      "name": "MessageReceived",
      "type": "event"
    },
    {
      "anonymous": false,
      "inputs": [
        {
          "indexed": true,
          "internalType": "bytes32",
          "name": "messageId",
          "type": "bytes32"
        },
        {
          "indexed": true,
          "internalType": "uint64",
          "name": "destinationChainSelector",
          "type": "uint64"
        },
        {
          "indexed": false,
          "internalType": "address",
          "name": "receiver",
          "type": "address"
        },
        {
          "indexed": false,
          "internalType": "uint8",
          "name": "operationType",
          "type": "uint8"
        },
        {
          "indexed": false,
          "internalType": "address",
          "name": "borrower",
          "type": "address"
        },
        {
          "indexed": false,
          "internalType": "address",
          "name": "vault",
          "type": "address"
        },
        {
          "indexed": false,
          "internalType": "uint256",
          "name": "amount",
          "type": "uint256"
        },
        {
          "indexed": false,
          "internalType": "address",
          "name": "liquidator",
          "type": "address"
        },
        {
          "indexed": false,
          "internalType": "address",
          "name": "feeToken",
          "type": "address"
        },
        {
          "indexed": false,
          "internalType": "uint256",
          "name": "fees",
          "type": "uint256"
        }
      ],
      "name": "MessageSent",
      "type": "event"
    },
    {
      "anonymous": false,
      "inputs": [
        {
          "indexed": true,
          "internalType": "address",
          "name": "from",
          "type": "address"
        },
        {
          "indexed": true,
          "internalType": "address",
          "name": "to",
          "type": "address"
        }
      ],
      "name": "OwnershipTransferRequested",
      "type": "event"
    },
    {
      "anonymous": false,
      "inputs": [
        {
          "indexed": true,
          "internalType": "address",
          "name": "from",
          "type": "address"
        },
        {
          "indexed": true,
          "internalType": "address",
          "name": "to",
          "type": "address"
        }
      ],
      "name": "OwnershipTransferred",
      "type": "event"
    },
    {
      "anonymous": false,
      "inputs": [
        {
          "indexed": true,
          "internalType": "address",
          "name": "from",
          "type": "address"
        },
        {
          "indexed": true,
          "internalType": "address",
          "name": "to",
          "type": "address"
        },
        {
          "indexed": true,
          "internalType": "uint256",
          "name": "tokenId",
          "type": "uint256"
        }
      ],
      "name": "Transfer",
      "type": "event"
    },
    {
      "inputs": [],
      "name": "BORROW",
      "outputs": [
        {
          "internalType": "uint8",
          "name": "",
          "type": "uint8"
        }
      ],
      "stateMutability": "view",
      "type": "function"
    },
    {
      "inputs": [],
      "name": "LIQUIDATE",
      "outputs": [
        {
          "internalType": "uint8",
          "name": "",
          "type": "uint8"
        }
      ],
      "stateMutability": "view",
      "type": "function"
    },
    {
      "inputs": [],
      "name": "REPAY",
      "outputs": [
        {
          "internalType": "uint8",
          "name": "",
          "type": "uint8"
        }
      ],
      "stateMutability": "view",
      "type": "function"
    },
    {
      "inputs": [],
      "name": "acceptOwnership",
      "outputs": [],
      "stateMutability": "nonpayable",
      "type": "function"
    },
    {
      "inputs": [
        {
          "internalType": "address",
          "name": "to",
          "type": "address"
        },
        {
          "internalType": "uint256",
          "name": "tokenId",
          "type": "uint256"
        }
      ],
      "name": "approve",
      "outputs": [],
      "stateMutability": "nonpayable",
      "type": "function"
    },
    {
      "inputs": [
        {
          "internalType": "address",
          "name": "owner",
          "type": "address"
        }
      ],
      "name": "balanceOf",
      "outputs": [
        {
          "internalType": "uint256",
          "name": "",
          "type": "uint256"
        }
      ],
      "stateMutability": "view",
      "type": "function"
    },
    {
      "inputs": [
        {
          "components": [
            {
              "internalType": "bytes32",
              "name": "messageId",
              "type": "bytes32"
            },
            {
              "internalType": "uint64",
              "name": "sourceChainSelector",
              "type": "uint64"
            },
            {
              "internalType": "bytes",
              "name": "sender",
              "type": "bytes"
            },
            {
              "internalType": "bytes",
              "name": "data",
              "type": "bytes"
            },
            {
              "components": [
                {
                  "internalType": "address",
                  "name": "token",
                  "type": "address"
                },
                {
                  "internalType": "uint256",
                  "name": "amount",
                  "type": "uint256"
                }
              ],
              "internalType": "struct Client.EVMTokenAmount[]",
              "name": "destTokenAmounts",
              "type": "tuple[]"
            }
          ],
          "internalType": "struct Client.Any2EVMMessage",
          "name": "message",
          "type": "tuple"
        }
      ],
      "name": "ccipReceive",
      "outputs": [],
      "stateMutability": "nonpayable",
      "type": "function"
    },
    {
      "inputs": [],
      "name": "createVault",
      "outputs": [],
      "stateMutability": "nonpayable",
      "type": "function"
    },
    {
      "inputs": [
        {
          "internalType": "address",
          "name": "",
          "type": "address"
        }
      ],
      "name": "debts",
      "outputs": [
        {
          "internalType": "uint256",
          "name": "",
          "type": "uint256"
        }
      ],
      "stateMutability": "view",
      "type": "function"
    },
    {
      "inputs": [],
      "name": "destChainSelector",
      "outputs": [
        {
          "internalType": "uint64",
          "name": "",
          "type": "uint64"
        }
      ],
      "stateMutability": "view",
      "type": "function"
    },
    {
      "inputs": [],
      "name": "facilitator",
      "outputs": [
        {
          "internalType": "address",
          "name": "",
          "type": "address"
        }
      ],
      "stateMutability": "view",
      "type": "function"
    },
    {
      "inputs": [
        {
          "internalType": "uint256",
          "name": "tokenId",
          "type": "uint256"
        }
      ],
      "name": "getApproved",
      "outputs": [
        {
          "internalType": "address",
          "name": "",
          "type": "address"
        }
      ],
      "stateMutability": "view",
      "type": "function"
    },
    {
      "inputs": [],
      "name": "getRouter",
      "outputs": [
        {
          "internalType": "address",
          "name": "",
          "type": "address"
        }
      ],
      "stateMutability": "view",
      "type": "function"
    },
    {
      "inputs": [
        {
          "internalType": "address",
          "name": "_vault",
          "type": "address"
        }
      ],
      "name": "getVaultData",
      "outputs": [
        {
          "internalType": "uint256",
          "name": "totalCollateralBase",
          "type": "uint256"
        },
        {
          "internalType": "uint256",
          "name": "totalDebtBase",
          "type": "uint256"
        },
        {
          "internalType": "uint256",
          "name": "ltv",
          "type": "uint256"
        }
      ],
      "stateMutability": "view",
      "type": "function"
    },
    {
      "inputs": [
        {
          "internalType": "address",
          "name": "_vault",
          "type": "address"
        },
        {
          "internalType": "uint256",
          "name": "_amount",
          "type": "uint256"
        }
      ],
      "name": "initBorrow",
      "outputs": [],
      "stateMutability": "nonpayable",
      "type": "function"
    },
    {
      "inputs": [
        {
          "internalType": "address",
          "name": "owner",
          "type": "address"
        },
        {
          "internalType": "address",
          "name": "operator",
          "type": "address"
        }
      ],
      "name": "isApprovedForAll",
      "outputs": [
        {
          "internalType": "bool",
          "name": "",
          "type": "bool"
        }
      ],
      "stateMutability": "view",
      "type": "function"
    },
    {
      "inputs": [
        {
          "internalType": "bytes32",
          "name": "",
          "type": "bytes32"
        }
      ],
      "name": "messages",
      "outputs": [
        {
          "internalType": "bytes",
          "name": "",
          "type": "bytes"
        }
      ],
      "stateMutability": "view",
      "type": "function"
    },
    {
      "inputs": [],
      "name": "name",
      "outputs": [
        {
          "internalType": "string",
          "name": "",
          "type": "string"
        }
      ],
      "stateMutability": "view",
      "type": "function"
    },
    {
      "inputs": [],
      "name": "owner",
      "outputs": [
        {
          "internalType": "address",
          "name": "",
          "type": "address"
        }
      ],
      "stateMutability": "view",
      "type": "function"
    },
    {
      "inputs": [
        {
          "internalType": "uint256",
          "name": "tokenId",
          "type": "uint256"
        }
      ],
      "name": "ownerOf",
      "outputs": [
        {
          "internalType": "address",
          "name": "",
          "type": "address"
        }
      ],
      "stateMutability": "view",
      "type": "function"
    },
    {
      "inputs": [],
      "name": "pool",
      "outputs": [
        {
          "internalType": "contract IPool",
          "name": "",
          "type": "address"
        }
      ],
      "stateMutability": "view",
      "type": "function"
    },
    {
      "inputs": [
        {
          "internalType": "address",
          "name": "from",
          "type": "address"
        },
        {
          "internalType": "address",
          "name": "to",
          "type": "address"
        },
        {
          "internalType": "uint256",
          "name": "tokenId",
          "type": "uint256"
        }
      ],
      "name": "safeTransferFrom",
      "outputs": [],
      "stateMutability": "nonpayable",
      "type": "function"
    },
    {
      "inputs": [
        {
          "internalType": "address",
          "name": "from",
          "type": "address"
        },
        {
          "internalType": "address",
          "name": "to",
          "type": "address"
        },
        {
          "internalType": "uint256",
          "name": "tokenId",
          "type": "uint256"
        },
        {
          "internalType": "bytes",
          "name": "data",
          "type": "bytes"
        }
      ],
      "name": "safeTransferFrom",
      "outputs": [],
      "stateMutability": "nonpayable",
      "type": "function"
    },
    {
      "inputs": [
        {
          "internalType": "address",
          "name": "operator",
          "type": "address"
        },
        {
          "internalType": "bool",
          "name": "approved",
          "type": "bool"
        }
      ],
      "name": "setApprovalForAll",
      "outputs": [],
      "stateMutability": "nonpayable",
      "type": "function"
    },
    {
      "inputs": [
        {
          "internalType": "bytes4",
          "name": "interfaceId",
          "type": "bytes4"
        }
      ],
      "name": "supportsInterface",
      "outputs": [
        {
          "internalType": "bool",
          "name": "",
          "type": "bool"
        }
      ],
      "stateMutability": "view",
      "type": "function"
    },
    {
      "inputs": [],
      "name": "symbol",
      "outputs": [
        {
          "internalType": "string",
          "name": "",
          "type": "string"
        }
      ],
      "stateMutability": "view",
      "type": "function"
    },
    {
      "inputs": [
        {
          "internalType": "uint256",
          "name": "tokenId",
          "type": "uint256"
        }
      ],
      "name": "tokenURI",
      "outputs": [
        {
          "internalType": "string",
          "name": "",
          "type": "string"
        }
      ],
      "stateMutability": "view",
      "type": "function"
    },
    {
      "inputs": [
        {
          "internalType": "address",
          "name": "from",
          "type": "address"
        },
        {
          "internalType": "address",
          "name": "to",
          "type": "address"
        },
        {
          "internalType": "uint256",
          "name": "tokenId",
          "type": "uint256"
        }
      ],
      "name": "transferFrom",
      "outputs": [],
      "stateMutability": "nonpayable",
      "type": "function"
    },
    {
      "inputs": [
        {
          "internalType": "address",
          "name": "to",
          "type": "address"
        }
      ],
      "name": "transferOwnership",
      "outputs": [],
      "stateMutability": "nonpayable",
      "type": "function"
    },
    {
      "inputs": [
        {
          "internalType": "address",
          "name": "_facilitator",
          "type": "address"
        }
      ],
      "name": "updateGhoulFacilitator",
      "outputs": [],
      "stateMutability": "nonpayable",
      "type": "function"
    },
    {
      "inputs": [
        {
          "internalType": "address",
          "name": "_pool",
          "type": "address"
        }
      ],
      "name": "updateGhoulPool",
      "outputs": [],
      "stateMutability": "nonpayable",
      "type": "function"
    },
    {
      "inputs": [
        {
          "internalType": "address",
          "name": "_beneficiary",
          "type": "address"
        }
      ],
      "name": "withdraw",
      "outputs": [],
      "stateMutability": "nonpayable",
      "type": "function"
    },
    {
      "inputs": [
        {
          "internalType": "address",
          "name": "_vault",
          "type": "address"
        },
        {
          "internalType": "address",
          "name": "token",
          "type": "address"
        },
        {
          "internalType": "uint256",
          "name": "amount",
          "type": "uint256"
        }
      ],
      "name": "withdraw",
      "outputs": [],
      "stateMutability": "nonpayable",
      "type": "function"
    },
    {
      "inputs": [
        {
          "internalType": "address",
          "name": "_beneficiary",
          "type": "address"
        },
        {
          "internalType": "address",
          "name": "_token",
          "type": "address"
        }
      ],
      "name": "withdrawToken",
      "outputs": [],
      "stateMutability": "nonpayable",
      "type": "function"
    },
    {
      "stateMutability": "payable",
      "type": "receive"
    }
  ],
  "bytecode": "0x60a06040523480156200001157600080fd5b5060405162003c0b38038062003c0b83398101604081905262000034916200029e565b604080518082018252600b81526a23b437bab62937baba32b960a91b6020808301919091528251808401909352600583526411d213d55360da1b9083015290838333806000846001600160a01b038116620000aa576040516335fdcccd60e21b8152600060048201526024015b60405180910390fd5b6001600160a01b039081166080528216620001085760405162461bcd60e51b815260206004820152601860248201527f43616e6e6f7420736574206f776e657220746f207a65726f00000000000000006044820152606401620000a1565b600080546001600160a01b0319166001600160a01b03848116919091179091558116156200013b576200013b81620001d6565b5050600280546001600160a01b0319166001600160a01b03939093169290921790915550600390506200016f8382620003ad565b5060046200017e8282620003ad565b5050600980546001600160a01b039095166001600160a01b0319909516949094179093555050600a80546001600160401b03909316600160a01b02600160a01b600160e01b0319909316929092179091555062000479565b336001600160a01b03821603620002305760405162461bcd60e51b815260206004820152601760248201527f43616e6e6f74207472616e7366657220746f2073656c660000000000000000006044820152606401620000a1565b600180546001600160a01b0319166001600160a01b0383811691821790925560008054604051929316917fed8889f560326eb138920d842192f0eb3dd22b4f139c87a2c57538e05bae12789190a350565b80516001600160a01b03811681146200029957600080fd5b919050565b60008060008060808587031215620002b557600080fd5b84516001600160401b0381168114620002cd57600080fd5b9350620002dd6020860162000281565b9250620002ed6040860162000281565b9150620002fd6060860162000281565b905092959194509250565b634e487b7160e01b600052604160045260246000fd5b600181811c908216806200033357607f821691505b6020821081036200035457634e487b7160e01b600052602260045260246000fd5b50919050565b601f821115620003a857600081815260208120601f850160051c81016020861015620003835750805b601f850160051c820191505b81811015620003a4578281556001016200038f565b5050505b505050565b81516001600160401b03811115620003c957620003c962000308565b620003e181620003da84546200031e565b846200035a565b602080601f831160018114620004195760008415620004005750858301515b600019600386901b1c1916600185901b178555620003a4565b600085815260208120601f198616915b828110156200044a5788860151825594840194600190910190840162000429565b5085821015620004695787850151600019600388901b60f8161c191681555b5050505050600190811b01905550565b60805161376f6200049c600039600081816106b10152611056015261376f6000f3fe608060405260043610620002495760003560e01c806370a08231116200013457806395d89b4111620000be578063b88d4fde1162000089578063d9caed12116200006c578063d9caed121462000720578063e985e9c51462000745578063f2fde38b146200079257600080fd5b8063b88d4fde14620006d6578063c87b56dd14620006fb57600080fd5b806395d89b41146200063f57806398e95f4e1462000657578063a22cb465146200067c578063b0f479a114620006a157600080fd5b80638500aca911620000ff5780638500aca914620005be57806385572ffb14620005d557806386da9b7214620005fa5780638da5cb5b146200061f57600080fd5b806370a082311462000548578063721672b2146200056d5780637797cee4146200058457806379ba509714620005a657600080fd5b80632bbd59ca11620001d357806351cff8d9116200019e5780635d12928b11620001815780635d12928b14620004e65780635e29192814620004fe5780636352211e146200052357600080fd5b806351cff8d9146200048057806356360f7114620004a557600080fd5b80632bbd59ca14620003d15780632ecd4e7d14620003f65780633aeac4e1146200043657806342842e0e146200045b57600080fd5b8063095ea7b31162000214578063095ea7b3146200031f57806310d1b90d146200034657806316f0115b146200038a57806323b872dd14620003ac57600080fd5b806301ffc9a7146200025657806304956839146200029057806306fdde0314620002ba578063081812fc14620002e157600080fd5b366200025157005b600080fd5b3480156200026357600080fd5b506200027b62000275366004620027e5565b620007b7565b60405190151581526020015b60405180910390f35b3480156200029d57600080fd5b50620002a7600281565b60405160ff909116815260200162000287565b348015620002c757600080fd5b50620002d2620007dc565b60405162000287919062002859565b348015620002ee57600080fd5b5062000306620003003660046200286e565b62000876565b6040516001600160a01b03909116815260200162000287565b3480156200032c57600080fd5b50620003446200033e3660046200289e565b6200089f565b005b3480156200035357600080fd5b50600a546200037090600160a01b900467ffffffffffffffff1681565b60405167ffffffffffffffff909116815260200162000287565b3480156200039757600080fd5b5060095462000306906001600160a01b031681565b348015620003b957600080fd5b5062000344620003cb366004620028cd565b620009fb565b348015620003de57600080fd5b50620002d2620003f03660046200286e565b62000a79565b3480156200040357600080fd5b50620004276200041536600462002913565b600c6020526000908152604090205481565b60405190815260200162000287565b3480156200044357600080fd5b50620003446200045536600462002933565b62000b1b565b3480156200046857600080fd5b50620003446200047a366004620028cd565b62000c4c565b3480156200048d57600080fd5b50620003446200049f36600462002913565b62000c69565b348015620004b257600080fd5b50620004ca620004c436600462002913565b62000d40565b6040805193845260208401929092529082015260600162000287565b348015620004f357600080fd5b506200034462000e1f565b3480156200050b57600080fd5b50620003446200051d36600462002913565b62000e69565b3480156200053057600080fd5b5062000306620005423660046200286e565b62000e95565b3480156200055557600080fd5b50620004276200056736600462002913565b62000efc565b3480156200057a57600080fd5b50620002a7600181565b3480156200059157600080fd5b50600a5462000306906001600160a01b031681565b348015620005b357600080fd5b506200034462000f98565b348015620005cb57600080fd5b50620002a7600081565b348015620005e257600080fd5b5062000344620005f436600462002971565b6200104b565b3480156200060757600080fd5b50620003446200061936600462002913565b620010c9565b3480156200062c57600080fd5b506000546001600160a01b031662000306565b3480156200064c57600080fd5b50620002d2620010f5565b3480156200066457600080fd5b5062000344620006763660046200289e565b62001106565b3480156200068957600080fd5b50620003446200069b366004620029be565b6200127e565b348015620006ae57600080fd5b507f000000000000000000000000000000000000000000000000000000000000000062000306565b348015620006e357600080fd5b5062000344620006f536600462002b04565b6200128b565b3480156200070857600080fd5b50620002d26200071a3660046200286e565b62001309565b3480156200072d57600080fd5b50620003446200073f366004620028cd565b62001386565b3480156200075257600080fd5b506200027b6200076436600462002933565b6001600160a01b03918216600090815260086020908152604080832093909416825291909152205460ff1690565b3480156200079f57600080fd5b5062000344620007b136600462002913565b620014ef565b6000620007c48262001504565b80620007d65750620007d68262001554565b92915050565b606060038054620007ed9062002b78565b80601f01602080910402602001604051908101604052809291908181526020018280546200081b9062002b78565b80156200086c5780601f1062000840576101008083540402835291602001916200086c565b820191906000526020600020905b8154815290600101906020018083116200084e57829003601f168201915b5050505050905090565b60006200088382620015d9565b506000908152600760205260409020546001600160a01b031690565b6000620008ac8262000e95565b9050806001600160a01b0316836001600160a01b0316036200093b5760405162461bcd60e51b815260206004820152602160248201527f4552433732313a20617070726f76616c20746f2063757272656e74206f776e6560448201527f720000000000000000000000000000000000000000000000000000000000000060648201526084015b60405180910390fd5b336001600160a01b03821614806200097657506001600160a01b038116600090815260086020908152604080832033845290915290205460ff165b620009ea5760405162461bcd60e51b815260206004820152603d60248201527f4552433732313a20617070726f76652063616c6c6572206973206e6f7420746f60448201527f6b656e206f776e6572206f7220617070726f76656420666f7220616c6c000000606482015260840162000932565b620009f683836200163f565b505050565b62000a08335b82620016af565b62000a6c5760405162461bcd60e51b815260206004820152602d60248201527f4552433732313a2063616c6c6572206973206e6f7420746f6b656e206f776e6560448201526c1c881bdc88185c1c1c9bdd9959609a1b606482015260840162000932565b620009f683838362001734565b600b602052600090815260409020805462000a949062002b78565b80601f016020809104026020016040519081016040528092919081815260200182805462000ac29062002b78565b801562000b135780601f1062000ae75761010080835404028352916020019162000b13565b820191906000526020600020905b81548152906001019060200180831162000af557829003601f168201915b505050505081565b62000b2562001937565b6040516370a0823160e01b81523060048201526000906001600160a01b038316906370a0823190602401602060405180830381865afa15801562000b6d573d6000803e3d6000fd5b505050506040513d601f19601f8201168201806040525081019062000b93919062002bb4565b90508060000362000bb757604051630686827b60e51b815260040160405180910390fd5b6040517fa9059cbb0000000000000000000000000000000000000000000000000000000081526001600160a01b0384811660048301526024820183905283169063a9059cbb906044016020604051808303816000875af115801562000c20573d6000803e3d6000fd5b505050506040513d601f19601f8201168201806040525081019062000c46919062002bce565b50505050565b620009f6838383604051806020016040528060008152506200128b565b62000c7362001937565b47600081900362000c9757604051630686827b60e51b815260040160405180910390fd5b6000826001600160a01b03168260405160006040518083038185875af1925050503d806000811462000ce6576040519150601f19603f3d011682016040523d82523d6000602084013e62000ceb565b606091505b5050905080620009f6576040517f9d11f5630000000000000000000000000000000000000000000000000000000081523360048201526001600160a01b03841660248201526044810183905260640162000932565b6009546040517fbf92857c0000000000000000000000000000000000000000000000000000000081526001600160a01b038381166004830152600092839283928392839283928392169063bf92857c9060240160c060405180830381865afa15801562000db1573d6000803e3d6000fd5b505050506040513d601f19601f8201168201806040525081019062000dd7919062002bee565b6001600160a01b038e166000908152600c6020526040902054959c509099509297509095509350915062000e12906402540be4009062002c4f565b9550505050509193909250565b600060405162000e2f90620027c0565b604051809103906000f08015801562000e4c573d6000803e3d6000fd5b5090506001600160a01b03811662000e65338262001995565b5050565b62000e7362001937565b600980546001600160a01b0319166001600160a01b0392909216919091179055565b6000818152600560205260408120546001600160a01b031680620007d65760405162461bcd60e51b815260206004820152601860248201527f4552433732313a20696e76616c696420746f6b656e2049440000000000000000604482015260640162000932565b60006001600160a01b03821662000f7c5760405162461bcd60e51b815260206004820152602960248201527f4552433732313a2061646472657373207a65726f206973206e6f74206120766160448201527f6c6964206f776e65720000000000000000000000000000000000000000000000606482015260840162000932565b506001600160a01b031660009081526006602052604090205490565b6001546001600160a01b0316331462000ff45760405162461bcd60e51b815260206004820152601660248201527f4d7573742062652070726f706f736564206f776e657200000000000000000000604482015260640162000932565b60008054336001600160a01b0319808316821784556001805490911690556040516001600160a01b0390921692909183917f8be0079c531659141344cd1fd0a4f28419497f9722a3daafe3b4186f6b6457e091a350565b336001600160a01b037f00000000000000000000000000000000000000000000000000000000000000001614620010b1576040517fd7f7333400000000000000000000000000000000000000000000000000000000815233600482015260240162000932565b620010c6620010c08262002d4b565b620019b1565b50565b620010d362001937565b600a80546001600160a01b0319166001600160a01b0392909216919091179055565b606060048054620007ed9062002b78565b816001600160a01b0381166200111c3362000a01565b620011905760405162461bcd60e51b815260206004820152602e60248201527f4552433732313a2063616c6c6572206973206e6f7420746f6b656e206f776e6560448201527f72206e6f7220617070726f766564000000000000000000000000000000000000606482015260840162000932565b836000806000620011a18462000d40565b91945092509050620011b4818362002e06565b620011c28461271062002e06565b1015620012125760405162461bcd60e51b815260206004820152601360248201527f556e646572436f6c6c61746572616c697a656400000000000000000000000000604482015260640162000932565b6001600160a01b0388166000908152600c60205260408120805433928a92916200123e90849062002e20565b9091555050600a54620012729067ffffffffffffffff600160a01b820416906001600160a01b03166000848d8d8362001abc565b50505050505050505050565b62000e6533838362001e9e565b620012973383620016af565b620012fb5760405162461bcd60e51b815260206004820152602d60248201527f4552433732313a2063616c6c6572206973206e6f7420746f6b656e206f776e6560448201526c1c881bdc88185c1c1c9bdd9959609a1b606482015260840162000932565b62000c468484848462001f6e565b60606200131682620015d9565b60006200132e60408051602081019091526000815290565b905060008151116200135057604051806020016040528060008152506200137f565b806200135c8462001ff2565b6040516020016200136f92919062002e36565b6040516020818303038152906040525b9392505050565b826001600160a01b0381166200139c3362000a01565b620014105760405162461bcd60e51b815260206004820152602e60248201527f4552433732313a2063616c6c6572206973206e6f7420746f6b656e206f776e6560448201527f72206e6f7220617070726f766564000000000000000000000000000000000000606482015260840162000932565b6001600160a01b0385166000908152600c602052604090205415620014785760405162461bcd60e51b815260206004820152601f60248201527f5265706179206c6f616e20746f20776974686472617720706f736974696f6e00604482015260640162000932565b846001600160a01b03811663d9caed12336040516001600160e01b031960e084901b1681526001600160a01b039182166004820152908816602482015260448101879052606401600060405180830381600087803b158015620014da57600080fd5b505af115801562001272573d6000803e3d6000fd5b620014f962001937565b620010c68162002099565b60006001600160e01b031982167f85572ffb000000000000000000000000000000000000000000000000000000001480620007d657506001600160e01b031982166301ffc9a760e01b1492915050565b60006001600160e01b031982167f80ac58cd000000000000000000000000000000000000000000000000000000001480620015b857506001600160e01b031982167f5b5e139f00000000000000000000000000000000000000000000000000000000145b80620007d657506301ffc9a760e01b6001600160e01b0319831614620007d6565b6000818152600560205260409020546001600160a01b0316620010c65760405162461bcd60e51b815260206004820152601860248201527f4552433732313a20696e76616c696420746f6b656e2049440000000000000000604482015260640162000932565b600081815260076020526040902080546001600160a01b0319166001600160a01b0384169081179091558190620016768262000e95565b6001600160a01b03167f8c5be1e5ebec7d5bd14f71427d1e84f3dd0314c0f7b2291e5b200ac8c7c3b92560405160405180910390a45050565b600080620016bd8362000e95565b9050806001600160a01b0316846001600160a01b031614806200170557506001600160a01b0380821660009081526008602090815260408083209388168352929052205460ff165b806200172c5750836001600160a01b0316620017218462000876565b6001600160a01b0316145b949350505050565b826001600160a01b0316620017498262000e95565b6001600160a01b031614620017af5760405162461bcd60e51b815260206004820152602560248201527f4552433732313a207472616e736665722066726f6d20696e636f72726563742060448201526437bbb732b960d91b606482015260840162000932565b6001600160a01b0382166200182c5760405162461bcd60e51b8152602060048201526024808201527f4552433732313a207472616e7366657220746f20746865207a65726f2061646460448201527f7265737300000000000000000000000000000000000000000000000000000000606482015260840162000932565b826001600160a01b0316620018418262000e95565b6001600160a01b031614620018a75760405162461bcd60e51b815260206004820152602560248201527f4552433732313a207472616e736665722066726f6d20696e636f72726563742060448201526437bbb732b960d91b606482015260840162000932565b600081815260076020908152604080832080546001600160a01b03199081169091556001600160a01b0387811680865260068552838620805460001901905590871680865283862080546001019055868652600590945282852080549092168417909155905184937fddf252ad1be2c89b69c2b068fc378daa952ba7f163c4a11628f55a4df523b3ef91a4505050565b6000546001600160a01b03163314620019935760405162461bcd60e51b815260206004820152601660248201527f4f6e6c792063616c6c61626c65206279206f776e657200000000000000000000604482015260640162000932565b565b62000e6582826040518060200160405280600081525062002144565b606081015181516000908152600b6020526040902090620019d3908262002eb3565b5060008060008060008560600151806020019051810190620019f6919062002f80565b8095508196508297508398508499505050505050856020015167ffffffffffffffff1686600001517fc4b0f235ab919bbe0a0f304d0018e3c57819199904d003b0204613eee6159820886040015180602001905181019062001a59919062002ff9565b604080516001600160a01b03928316815260ff8b1660208201528983168183015288831660608201526080810188905291861660a0830152519081900360c00190a360001960ff86160162001ab45762001ab48383620021c8565b505050505050565b600254600090819062001adf9089906001600160a01b0316898989898962002236565b90506000306001600160a01b031663b0f479a16040518163ffffffff1660e01b8152600401602060405180830381865afa15801562001b22573d6000803e3d6000fd5b505050506040513d601f19601f8201168201806040525081019062001b48919062002ff9565b90506000816001600160a01b03166320487ded8c856040518363ffffffff1660e01b815260040162001b7c92919062003019565b602060405180830381865afa15801562001b9a573d6000803e3d6000fd5b505050506040513d601f19601f8201168201806040525081019062001bc0919062002bb4565b6002546040516370a0823160e01b81523060048201529192506001600160a01b0316906370a0823190602401602060405180830381865afa15801562001c0a573d6000803e3d6000fd5b505050506040513d601f19601f8201168201806040525081019062001c30919062002bb4565b81111562001ce5576002546040516370a0823160e01b81523060048201526001600160a01b03909116906370a0823190602401602060405180830381865afa15801562001c81573d6000803e3d6000fd5b505050506040513d601f19601f8201168201806040525081019062001ca7919062002bb4565b6040517f8f0f420600000000000000000000000000000000000000000000000000000000815260048101919091526024810182905260440162000932565b6002546040517f095ea7b30000000000000000000000000000000000000000000000000000000081526001600160a01b038481166004830152602482018490529091169063095ea7b3906044016020604051808303816000875af115801562001d52573d6000803e3d6000fd5b505050506040513d601f19601f8201168201806040525081019062001d78919062002bce565b506040517f96f4e9f90000000000000000000000000000000000000000000000000000000081526001600160a01b038316906396f4e9f99062001dc2908e90879060040162003019565b6020604051808303816000875af115801562001de2573d6000803e3d6000fd5b505050506040513d601f19601f8201168201806040525081019062001e08919062002bb4565b600254604080516001600160a01b038e8116825260ff8e1660208301528c8116828401528b81166060830152608082018b905289811660a083015290921660c083015260e082018490525191955067ffffffffffffffff8d169186917fbd320bb97629e32977ae252f936e3cbd3cedc4354b662e47dfc5d5e395efcbb891908190036101000190a3505050979650505050505050565b816001600160a01b0316836001600160a01b03160362001f015760405162461bcd60e51b815260206004820152601960248201527f4552433732313a20617070726f766520746f2063616c6c657200000000000000604482015260640162000932565b6001600160a01b03838116600081815260086020908152604080832094871680845294825291829020805460ff191686151590811790915591519182527f17307eab39ab6107e8899845ad3d59bd9653f200f220920489ca2b5937696c31910160405180910390a3505050565b62001f7b84848462001734565b62001f8984848484620023ee565b62000c465760405162461bcd60e51b815260206004820152603260248201527f4552433732313a207472616e7366657220746f206e6f6e20455243373231526560448201527131b2b4bb32b91034b6b83632b6b2b73a32b960711b606482015260840162000932565b60606000620020018362002546565b600101905060008167ffffffffffffffff811115620020245762002024620029f1565b6040519080825280601f01601f1916602001820160405280156200204f576020820181803683370190505b5090508181016020015b600019017f3031323334353637383961626364656600000000000000000000000000000000600a86061a8153600a85049450846200205957509392505050565b336001600160a01b03821603620020f35760405162461bcd60e51b815260206004820152601760248201527f43616e6e6f74207472616e7366657220746f2073656c66000000000000000000604482015260640162000932565b600180546001600160a01b0319166001600160a01b0383811691821790925560008054604051929316917fed8889f560326eb138920d842192f0eb3dd22b4f139c87a2c57538e05bae12789190a350565b6200215083836200262f565b6200215f6000848484620023ee565b620009f65760405162461bcd60e51b815260206004820152603260248201527f4552433732313a207472616e7366657220746f206e6f6e20455243373231526560448201527131b2b4bb32b91034b6b83632b6b2b73a32b960711b606482015260840162000932565b6001600160a01b0382166000908152600c602052604090205481111562002203576001600160a01b0382166000908152600c60205260408120555b6001600160a01b0382166000908152600c6020526040812080548392906200222d908490620030fb565b90915550505050565b620022726040518060a0016040528060608152602001606081526020016060815260200160006001600160a01b03168152602001606081525090565b6040805160ff881660208201526001600160a01b038088169282019290925281861660608201526080810185905290831660a082015260009060c00160408051808303601f1901815260a083019091526001600160a01b038b1660c083015291508060e0810160408051808303601f19018152918152908252602080830185905281516000808252918101835292909101919062002333565b60408051808201909152600080825260208201528152602001906001900390816200230b5790505b508152602001896001600160a01b03168152602001620023df604051806040016040528062030d408152602001600115158152506040805182516024820152602092830151151560448083019190915282518083039091018152606490910190915290810180517bffffffffffffffffffffffffffffffffffffffffffffffffffffffff167f97a657c90000000000000000000000000000000000000000000000000000000017905290565b90529998505050505050505050565b60006001600160a01b0384163b156200253b57604051630a85bd0160e11b81526001600160a01b0385169063150b7a02906200243590339089908890889060040162003111565b6020604051808303816000875af192505050801562002473575060408051601f3d908101601f1916820190925262002470918101906200314f565b60015b62002520573d808015620024a4576040519150601f19603f3d011682016040523d82523d6000602084013e620024a9565b606091505b508051600003620025185760405162461bcd60e51b815260206004820152603260248201527f4552433732313a207472616e7366657220746f206e6f6e20455243373231526560448201527131b2b4bb32b91034b6b83632b6b2b73a32b960711b606482015260840162000932565b805181602001fd5b6001600160e01b031916630a85bd0160e11b1490506200172c565b506001949350505050565b6000807a184f03e93ff9f4daa797ed6e38ed64bf6a1f010000000000000000831062002590577a184f03e93ff9f4daa797ed6e38ed64bf6a1f010000000000000000830492506040015b6d04ee2d6d415b85acef81000000008310620025bd576d04ee2d6d415b85acef8100000000830492506020015b662386f26fc100008310620025dc57662386f26fc10000830492506010015b6305f5e1008310620025f5576305f5e100830492506008015b61271083106200260a57612710830492506004015b606483106200261d576064830492506002015b600a8310620007d65760010192915050565b6001600160a01b038216620026875760405162461bcd60e51b815260206004820181905260248201527f4552433732313a206d696e7420746f20746865207a65726f2061646472657373604482015260640162000932565b6000818152600560205260409020546001600160a01b031615620026ee5760405162461bcd60e51b815260206004820152601c60248201527f4552433732313a20746f6b656e20616c7265616479206d696e74656400000000604482015260640162000932565b6000818152600560205260409020546001600160a01b031615620027555760405162461bcd60e51b815260206004820152601c60248201527f4552433732313a20746f6b656e20616c7265616479206d696e74656400000000604482015260640162000932565b6001600160a01b038216600081815260066020908152604080832080546001019055848352600590915280822080546001600160a01b0319168417905551839291907fddf252ad1be2c89b69c2b068fc378daa952ba7f163c4a11628f55a4df523b3ef908290a45050565b6105ca806200317083390190565b6001600160e01b031981168114620010c657600080fd5b600060208284031215620027f857600080fd5b81356200137f81620027ce565b60005b838110156200282257818101518382015260200162002808565b50506000910152565b600081518084526200284581602086016020860162002805565b601f01601f19169290920160200192915050565b6020815260006200137f60208301846200282b565b6000602082840312156200288157600080fd5b5035919050565b6001600160a01b0381168114620010c657600080fd5b60008060408385031215620028b257600080fd5b8235620028bf8162002888565b946020939093013593505050565b600080600060608486031215620028e357600080fd5b8335620028f08162002888565b92506020840135620029028162002888565b929592945050506040919091013590565b6000602082840312156200292657600080fd5b81356200137f8162002888565b600080604083850312156200294757600080fd5b8235620029548162002888565b91506020830135620029668162002888565b809150509250929050565b6000602082840312156200298457600080fd5b813567ffffffffffffffff8111156200299c57600080fd5b820160a081850312156200137f57600080fd5b8015158114620010c657600080fd5b60008060408385031215620029d257600080fd5b8235620029df8162002888565b915060208301356200296681620029af565b634e487b7160e01b600052604160045260246000fd5b6040805190810167ffffffffffffffff8111828210171562002a2d5762002a2d620029f1565b60405290565b60405160a0810167ffffffffffffffff8111828210171562002a2d5762002a2d620029f1565b604051601f8201601f1916810167ffffffffffffffff8111828210171562002a855762002a85620029f1565b604052919050565b600082601f83011262002a9f57600080fd5b813567ffffffffffffffff81111562002abc5762002abc620029f1565b62002ad1601f8201601f191660200162002a59565b81815284602083860101111562002ae757600080fd5b816020850160208301376000918101602001919091529392505050565b6000806000806080858703121562002b1b57600080fd5b843562002b288162002888565b9350602085013562002b3a8162002888565b925060408501359150606085013567ffffffffffffffff81111562002b5e57600080fd5b62002b6c8782880162002a8d565b91505092959194509250565b600181811c9082168062002b8d57607f821691505b60208210810362002bae57634e487b7160e01b600052602260045260246000fd5b50919050565b60006020828403121562002bc757600080fd5b5051919050565b60006020828403121562002be157600080fd5b81516200137f81620029af565b60008060008060008060c0878903121562002c0857600080fd5b865195506020870151945060408701519350606087015192506080870151915060a087015190509295509295509295565b634e487b7160e01b600052601160045260246000fd5b60008262002c6d57634e487b7160e01b600052601260045260246000fd5b500490565b803567ffffffffffffffff8116811462002c8b57600080fd5b919050565b600082601f83011262002ca257600080fd5b8135602067ffffffffffffffff82111562002cc15762002cc1620029f1565b62002cd1818360051b0162002a59565b82815260069290921b8401810191818101908684111562002cf157600080fd5b8286015b8481101562002d40576040818903121562002d105760008081fd5b62002d1a62002a07565b813562002d278162002888565b8152818501358582015283529183019160400162002cf5565b509695505050505050565b600060a0823603121562002d5e57600080fd5b62002d6862002a33565b8235815262002d7a6020840162002c72565b6020820152604083013567ffffffffffffffff8082111562002d9b57600080fd5b62002da93683870162002a8d565b6040840152606085013591508082111562002dc357600080fd5b62002dd13683870162002a8d565b6060840152608085013591508082111562002deb57600080fd5b5062002dfa3682860162002c90565b60808301525092915050565b8082028115828204841417620007d657620007d662002c39565b80820180821115620007d657620007d662002c39565b6000835162002e4a81846020880162002805565b83519083019062002e6081836020880162002805565b01949350505050565b601f821115620009f657600081815260208120601f850160051c8101602086101562002e925750805b601f850160051c820191505b8181101562001ab45782815560010162002e9e565b815167ffffffffffffffff81111562002ed05762002ed0620029f1565b62002ee88162002ee1845462002b78565b8462002e69565b602080601f83116001811462002f20576000841562002f075750858301515b600019600386901b1c1916600185901b17855562001ab4565b600085815260208120601f198616915b8281101562002f515788860151825594840194600190910190840162002f30565b508582101562002f705787850151600019600388901b60f8161c191681555b5050505050600190811b01905550565b600080600080600060a0868803121562002f9957600080fd5b855160ff8116811462002fab57600080fd5b602087015190955062002fbe8162002888565b604087015190945062002fd18162002888565b60608701516080880151919450925062002feb8162002888565b809150509295509295909350565b6000602082840312156200300c57600080fd5b81516200137f8162002888565b6000604067ffffffffffffffff8516835260208181850152845160a0838601526200304860e08601826200282b565b905081860151603f19808784030160608801526200306783836200282b565b88860151888203830160808a01528051808352908601945060009350908501905b80841015620030bc57845180516001600160a01b031683528601518683015293850193600193909301929086019062003088565b5060608901516001600160a01b031660a08901526080890151888203830160c08a01529550620030ed81876200282b565b9a9950505050505050505050565b81810381811115620007d657620007d662002c39565b60006001600160a01b038087168352808616602084015250836040830152608060608301526200314560808301846200282b565b9695505050505050565b6000602082840312156200316257600080fd5b81516200137f81620027ce56fe608060405234801561001057600080fd5b5061001a3361001f565b61006f565b600080546001600160a01b038381166001600160a01b0319831681178455604051919092169283917f8be0079c531659141344cd1fd0a4f28419497f9722a3daafe3b4186f6b6457e09190a35050565b61054c8061007e6000396000f3fe608060405234801561001057600080fd5b506004361061004c5760003560e01c8063715018a6146100515780638da5cb5b1461005b578063d9caed121461007a578063f2fde38b1461008d575b600080fd5b6100596100a0565b005b600054604080516001600160a01b039092168252519081900360200190f35b610059610088366004610476565b6100b4565b61005961009b3660046104b7565b61030f565b6100a861039f565b6100b260006103f9565b565b6100bc61039f565b6001600160a01b03821661015b578047101561011f5760405162461bcd60e51b815260206004820152601460248201527f496e73756666696369656e742062616c616e636500000000000000000000000060448201526064015b60405180910390fd5b6040516001600160a01b0384169082156108fc029083906000818181858888f19350505050158015610155573d6000803e3d6000fd5b506102bd565b6040517f70a08231000000000000000000000000000000000000000000000000000000008152306004820152829082906001600160a01b038316906370a0823190602401602060405180830381865afa1580156101bc573d6000803e3d6000fd5b505050506040513d601f19601f820116820180604052508101906101e091906104db565b101561022e5760405162461bcd60e51b815260206004820152601460248201527f496e73756666696369656e742062616c616e63650000000000000000000000006044820152606401610116565b6040517fa9059cbb0000000000000000000000000000000000000000000000000000000081526001600160a01b0385811660048301526024820184905282169063a9059cbb906044016020604051808303816000875af1158015610296573d6000803e3d6000fd5b505050506040513d601f19601f820116820180604052508101906102ba91906104f4565b50505b816001600160a01b0316836001600160a01b03167fd1c19fbcd4551a5edfb66d43d2e337c04837afda3482b42bdf569a8fccdae5fb8360405161030291815260200190565b60405180910390a3505050565b61031761039f565b6001600160a01b0381166103935760405162461bcd60e51b815260206004820152602660248201527f4f776e61626c653a206e6577206f776e657220697320746865207a65726f206160448201527f64647265737300000000000000000000000000000000000000000000000000006064820152608401610116565b61039c816103f9565b50565b6000546001600160a01b031633146100b25760405162461bcd60e51b815260206004820181905260248201527f4f776e61626c653a2063616c6c6572206973206e6f7420746865206f776e65726044820152606401610116565b600080546001600160a01b038381167fffffffffffffffffffffffff0000000000000000000000000000000000000000831681178455604051919092169283917f8be0079c531659141344cd1fd0a4f28419497f9722a3daafe3b4186f6b6457e09190a35050565b6001600160a01b038116811461039c57600080fd5b60008060006060848603121561048b57600080fd5b833561049681610461565b925060208401356104a681610461565b929592945050506040919091013590565b6000602082840312156104c957600080fd5b81356104d481610461565b9392505050565b6000602082840312156104ed57600080fd5b5051919050565b60006020828403121561050657600080fd5b815180151581146104d457600080fdfea264697066735822122062385c8608b224e8cba6b1483256a7f2551e8ea7f8cb3a660bd5b8491a0aa49764736f6c63430008130033a2646970667358221220c1d496200b51e50e272dd65dd6af2f64bacbe9b30c7d194e0959fd215482348264736f6c63430008130033",
  "linkReferences": {},
  "deployedLinkReferences": {}
}